:020000040800F2
:10000000B0C10024410400084B4D00081F4A0008FD
:10001000494D0008A5080008CD5B0008000000005D
:100020000000000000000000000000008103000844
:10003000C508000800000000DD0300082F5200087A
:100040005B0400085B0400085B0400085B04000814
:100050005B0400085B0400085B040008C708000894
:100060005B0400085B0400085B0400085B040008F4
:100070005B0400085B0400085B0400085B040008E4
:100080005B0400085B0400085B0400082D090008FD
:100090005B040008390900085B0400085B040008E1
:1000A0005B0400081D5400085B0400085B040008A2
:1000B0005B0400085B0400085B0400085B040008A4
:1000C0005B0400085B0400085B0400085B04000894
:1000D0005B0400085B0400085B0400085B04000884
:1000E0005B0400085B040008000000005B040008DB
:1000F000295400085B0400085B0400085B04000846
:100100005B0400085B0400085B0400084150000821
:10011000695500085B0400085B0400085B040008E4
:100120005B0400085B0400085B0400085B04000833
:100130005B0400085B0400085B0400085B04000823
:1001400000000000000000000000000000000000AF
:100150005B0400085B0400085B0400085B04000803
:100160005B0400085B0400085B0400085B040008F3
:100170005B0400085B0400085B040008000000004A
:100180005B0400085B0400085B0400085B040008D3
:100190005B0400085B0400085B0400085B040008C3
:1001A0005B0400085B0400085B0400085B040008B3
:1001B0005B0400085B0400085B0400085B040008A3
:1001C0005B0400085B0400085B0400085B04000893
:1001D0005B0400085B0400085B0400085B04000883
:1001E0005B0400085B0400085B0400085B04000873
:1001F0005B0400085B0400085B0400085B04000863
:100200005B0400085B0400085B0400085B04000852
:100210005B0400085B0400085B0400085B04000842
:100220005B0400085B0400085B0400080000000099
:100230005B0400085B040008000000005B04000889
:100240005B0400085B0400085B0400085B04000812
:100250005B0400085B0400085B0400085B04000802
:100260005B0400085B0400085B0400085B040008F2
:100270005B0400085B0400085B0400080000000049
:100280005B0400085B0400085B0400080000000039
:10029000000000005B04000800F002F800F060F8C5
:1002A0000AA090E8000C82448344AAF10107DA45D1
:1002B00001D100F055F8AFF2090EBAE80F0013F0C3
:1002C000010F18BFFB1A43F0010318475C780000C8
:1002D0007C78000010F8013B0A4413F0030408BFC7
:1002E00010F8014B1D1108BF10F8015B641E05D00A
:1002F00010F8016B641E01F8016BF9D1002D15D0C7
:1003000010F8014B03F00C030C2BA1EB04040ABF03
:1003100010F8013BA4EB8314A4EB032405F10103C3
:1003200014F8016B5B1E01F8016BF9D5914238BFDF
:1003300010F8013BD1D3704700230024002500268C
:10034000103A28BF78C1FBD8520728BF30C148BF38
:100350000B6070471FB507F047FB1FBD10B510BD00
:1003600000F00FFA1146FFF7F5FF05F0EDFC00F085
:100370002DFA03B4FFF7F2FF03BC00F035FA0000DA
:100380002C4B19680868B0E8F04F80F30988BFF378
:100390006F8F4FF0000080F311887047000000005D
:1003A00008480068006880F308884FF0000080F378
:1003B000148862B661B6BFF34F8FBFF36F8F00DF53
:1003C00000BF00BF08ED00E0DFF80C00016841F459
:1003D00070010160704700BF88ED00E0EFF3098015
:1003E000BFF36F8F134B1A681EF0100F08BF20ED7C
:1003F000108A20E9F04F106009B44FF0500080F3EC
:100400001188BFF34F8FBFF36F8F06F09FFC4FF043
:10041000000080F3118809BC19680868B0E8F04F43
:100420001EF0100F08BFB0EC108A80F30988BFF3EC
:100430006F8F70475C320024EFF305807047000037
:100440000948804709480047FEE7FEE7FEE7FEE768
:10045000FEE7FEE7FEE7FEE7FEE7FEE704480549A4
:10046000054A064B704700004153000899020008F6
:10047000B0BB0024B0C10024B0BD0024B0BD002436
:1004800053EA020C00F069802DE9F04B4FF00006B2
:10049000002B1FBFB3FA83F503FA05F424FA05F61F
:1004A0005E4012BF1643B2FA82F502FA05F4C5F1B6
:1004B00020051EBF22FA05FC44EA0C04203556EA4A
:1004C000044C4FEA144418BF641C4FF000084FF06E
:1004D0000009904271EB030C39D3002919BFB1FA1E
:1004E00081F701FA07F6B0FA80F700FA07F6C7F1CC
:1004F00020071EBF20FA07FC46EA0C062037B6FB91
:10050000F4FCA7EB0507103F07F01F0BCBF120060B
:100510000CFA0BFB2CFA06F644BFB3460026202F3C
:10052000A4BF5E464FF0000B5BEA060C08BF4FF01D
:10053000010B19EB0B09ABFB027C48EB0608C01B57
:1005400006FB02CC0BFB03CC71EB0C01C1E70B46A5
:10055000024641464846BDE8F08B13B54FF0000017
:100560004FF00001AFF30080BDE81C407047B2F1CE
:1005700020030AD5C2F1200320FA02F001FA03F3A6
:1005800021FA02F140EA0300704721FA03F04FF02C
:100590000001704740EA010310B59B070FD1042A00
:1005A0000DD310C808C9121F9C42F8D020BA19BA3E
:1005B000884201D9012010BD4FF0FF3010BD1AB1A3
:1005C000D30703D0521C07E0002010BD10F8013BF8
:1005D00011F8014B1B1B07D110F8013B11F8014B1F
:1005E0001B1B01D1921EF1D1184610BD032A40F207
:1005F000308010F0030C00F0158011F8013BBCF1C5
:10060000020F624498BF11F801CB00F8013B38BFDC
:1006100011F8013BA2F1040298BF00F801CB38BFEA
:1006200000F8013B11F0030300F02580083AC0F008
:10063000088051F8043B083A51F804CBA0E80810B0
:10064000F5E7121D5CBF51F8043B40F8043BAFF3E3
:100650000080D20724BF11F8013B11F801CB48BF3D
:1006600011F8012B24BF00F8013B00F801CB48BF73
:1006700000F8012B704710B5203AC0F00B80B1E8AC
:100680001850203AA0E81850B1E81850A0E81850C7
:10069000BFF4F5AF5FEA027C24BFB1E81850A0E8D0
:1006A000185044BF18C918C0BDE810405FEA827CEA
:1006B00024BF51F8043B40F8043B08BF7047D20701
:1006C00028BF31F8023B48BF11F8012B28BF20F8A2
:1006D000023B48BF00F8012B704702F0FF0343EADA
:1006E000032242EA024200F002B84FF0000204295D
:1006F000C0F0128010F0030C00F01B80CCF1040C51
:10070000BCF1020F18BF00F8012BA8BF20F8022B84
:10071000A1EB0C0100F00DB85FEAC17C24BF00F82A
:10072000012B00F8012B48BF00F8012B70474FF058
:10073000000200B5134694469646203922BFA0E831
:100740000C50A0E80C50B1F12001BFF4F7AF09073D
:1007500028BFA0E80C5048BF0CC05DF804EB89002E
:1007600028BF40F8042B08BF704748BF20F8022B71
:1007700011F0804F18BF00F8012B70477047704789
:100780007047754600F02CF8AE46050069465346A2
:1007900020F00700854618B020B5FFF75FFEBDE8E2
:1007A00020404FF000064FF000074FF000084FF0D8
:1007B000000B21F00701AC46ACE8C009ACE8C00969
:1007C000ACE8C009ACE8C0098D46704710B50446D6
:1007D000AFF300802046BDE81040FFF7CABD00001F
:1007E000004870474CBB002401491820ABBEFEE70F
:1007F000260002007047000000204FF0FF312DED71
:10080000028B05F0C3FF204C002509E01E4A04239B
:100810001E48921D111D03F039FA192000F068FCE2
:1008200094ED0A0BB5EEC00BF1EE10FAEED30122F7
:100830001748D10301F07CFA9FED168B656209E041
:10084000114A04231148921D111D03F01FFA1920AB
:1008500000F04EFC94ED0A0BB4EEC80BF1EE10FA6A
:1008600002D2A0780028EBD0A5709FED0C0B0648B3
:10087000001D0570656184ED0A0B256184ED0C0B8C
:10088000206A06F00DFACBE700000024683400244B
:10089000000402580000000000C072400000000088
:1008A000002059C0FEE70000054D4FF0FF34002046
:1008B000214605F06BFFE86906F0F2F9F7E7000062
:1008C000000000247047022001F010B972B6FEE764
:1008D00038B500241348234622462146009400F0F0
:1008E0005EFC08B172B6FEE70E4801F0C0F808B130
:1008F00072B6FEE70B480022012100F00BFC08B1A4
:1009000072B6FEE708484FF4002140F25552C0E9A4
:100910000024C0E90241046144618461C46104624D
:1009200038BD0000A4330024D0350024014800F075
:100930001DBD0000A4330024014800F017BD0000D5
:10094000A4330024F0B503684FF6FC716D4C426B84
:10095000D3F884508D4345EA8205C3F88450036878
:1009600053F8845F068F25F47F0545EA06451D6030
:10097000836B654D9F180268D2F888308B4343EA39
:100980008703C2F88830026852F8883F868F23F4C4
:10099000FE0343EA06431360066856F8A03FC26BA5
:1009A0008B4307EB420243EA82033360076857F840
:1009B000A03FB0F8406023F4FE0343EA06433B60E7
:1009C000D0E9103603FB06220368D3F8B0608E43EB
:1009D00046EA8206C3F8B0600368B0F84860D3F80E
:1009E000B07027F4FE0747EA0646C3F8B060D0E9C6
:1009F0001267036806FB0722D3F8AC608E4346EA11
:100A00008206C3F8AC60D0E91467036806FB0722CE
:100A1000D3F8F0608E4346EA8206C3F8F0600368BC
:100A2000B0F85860D3F8F07027F47C1747EA064610
:100A3000C3F8F0600368876D53F8C06F02EB47029C
:100A40008E4346EA820119600168B0F85C20D1F853
:100A5000C03023F47C1343EA0242C1F8C02001688D
:100A600090F86020D1F8C03023F07C5343EA026252
:100A7000C1F8C020416B04EB8101C166826B01EBC0
:100A800082020267C36B02EBC3024267D0E91034F3
:100A9000634302EB83028267D0E91234634302EBC3
:100AA0008302C267D0E91434634302EB8302C0F8C7
:100AB0008020836D02EBC303C0F88430C46D826E66
:100AC000544303EB8403C0F88830046E544303EBB3
:100AD0008402C0F89020AA420AD9D0F89C200321B1
:100AE00042F02002C0F89C2080F898100120F0BD50
:100AF000002200E004C1D0F890308B42FAD80020E8
:100B0000F0BD000000AC0040FCD300402DE9F84FE0
:100B1000044601F019F900903CB194F83500022820
:100B200006D0802161650020E4E00120BDE8F88F57
:100B3000C74DC74EC649183520683036DFF81483D4
:100B4000DFF814938842DFF814A3DFF814B32ED033
:100B5000A8422CD0B0422AD0404528D0484526D0C3
:100B6000504524D0584522D0BD4A183290421ED05C
:100B7000BC4A90421BD0BB4A1832904217D0B94AA7
:100B80003032904213D0B74A483290420FD0B54A23
:100B9000603290420BD0B34A7832904207D0B14ACB
:100BA0009032904203D0AF4AA832904209D10268F5
:100BB00022F01E0202602068426922F08002426137
:100BC00003E0026822F00E02026027688F42384676
:100BD0004DD0A8424BD0B04249D0404547D04845BF
:100BE00045D0504543D0584541D09D4A1832904297
:100BF0003DD09C4A90423AD09A4A1832904236D020
:100C0000984A3032904232D0964A483290422ED0A2
:100C1000944A603290422AD0924A7832904226D04A
:100C2000904A9032904222D08E4AA83290421ED0F2
:100C30008D4A90421BD08C4A1432904217D08A4A77
:100C40002832904213D0884A3C3290420FD0864AD4
:100C5000503290420BD0844A6432904207D0824A8C
:100C60007832904203D0804A8C32974204D1206E71
:100C7000026822F48072026075492068884228D098
:100C8000A84226D0B04224D0404522D0484520D0AA
:100C900050451ED058451CD071491831884218D093
:100CA0007049884215D06F491831884211D06D497A
:100CB000303188420DD06B494831884209D06949AA
:100CC0006031884205D067497831884201D0654952
:100CD0009031016821F0010101600EE001F034F86B
:100CE0000099401A052808D92022626503210020B6
:100CF00084F8351084F8340017E73868C007EDD160
:100D0000534A0121206890422ED0A8422CD0B042F4
:100D10002AD0404528D0484526D0504524D05845B3
:100D200022D04F4B183398421ED04E4B98421BD0C6
:100D30004C4B1833984217D04A4B3033984213D05B
:100D4000484B483398420FD0464B603398420BD003
:100D5000444B7833984207D0424B9033984203D0AB
:100D6000404BA833984208D194F85C703F23A06DA3
:100D700007F01F07BB40836007E094F85C30A06D6C
:100D800003F01F0301FA03F34360206890424DD043
:100D9000A8424BD0B04249D0404547D0484545D005
:100DA000504543D0584541D02D4A183290423DD04D
:100DB0002C4A90423AD02B4A1832904236D0294AD7
:100DC0003032904232D0274A483290422ED0254AC3
:100DD000603290422AD0234A7832904226D0214A6B
:100DE0009032904222D01F4AA83290421ED01E4A12
:100DF00090421BD01C4A1432904217D01A4A283213
:100E0000904213D0184A3C3290420FD0164A5032CA
:100E100090420BD0144A6432904207D0124A783282
:100E2000904203D0104A8C3290420BD1D4E919027F
:100E30004260E06E30B1026822F480720260D4E950
:100E40001C024260002084F8351084F834006DE6FE
:100E5000100002405800024070000240880002402A
:100E6000A000024010040240085402582DE9F05F2F
:100E700028B190F83510022904D080214165012065
:100E8000BDE8F09F904C904B0168183C18338E4A97
:100E9000DFF83C92A1428D4CDFF838E28E4FDFF84C
:100EA0003CB2DFF83CA28F4D8F4E31D091422FD013
:100EB00099422DD0A1422BD0494529D0714527D048
:100EC000B94225D0DFF810C20CF1180C61451FD0D3
:100ED000DFF808C2ACF1600C614519D0DFF8FCC145
:100EE000ACF1480C614513D0DFF8F0C1ACF1300C27
:100EF00061450DD0DFF8E4C1ACF1180C614507D0B5
:100F0000594505D0514503D0A94201D0B1422CD159
:100F1000DFF8B4C14FF0040880F83580ACF1180C4C
:100F200061451DD091421BD0994219D0A14217D0E2
:100F3000494515D0714513D0B94211D066481830D3
:100F400081420DD065486038814209D063484838F5
:100F5000814205D061483038814201D05F4818385D
:100F6000086820F001000860ABE0D1F800C02CF068
:100F70000E08DFF854C1C1F80080ACF1180C01680C
:100F8000614527D0914225D0994223D0A14221D05A
:100F900049451FD071451DD0B9421BD0DFF838C17B
:100FA0000CF1180C614515D0DFF830C1ACF1600CC4
:100FB00061450FD0DFF824C1ACF1480C614509D080
:100FC000DFF818C1ACF1300C614503D0DFF80CC17B
:100FD000ACF1180CD1F800C02CF0010CC1F800C025
:100FE000DFF8E4804FF0010C0168A8F118084145D2
:100FF00046D0914244D0994242D0A14240D0494586
:101000003ED071453CD0B9423AD0334A1832914271
:1010100036D0324A603A914232D0304A483A914210
:101020002ED02E4A303A91422AD02C4A183A914278
:1010300026D0594524D0514522D0A94220D0B142D2
:101040001ED02A4A91421BD0284A1432914217D00E
:10105000264A2832914213D0244A3C3291420FD082
:10106000224A503291420BD0204A6432914207D03A
:101070001E4A7832914203D01C4A8C32914218D1D8
:10108000016E0A6822F480720A6090F85C20816D1B
:1010900002F01F020CFA02F24A60D0E919124A600B
:1010A000C16E31B10A6822F480720A60D0E91C1264
:1010B0004A600022016D80F835C080F8342001B10B
:1010C00088470020DCE6000028000240580002406B
:1010D0007000024088000240A000024070040240FC
:1010E00088040240A0040240B80402400854025898
:1010F00070B5044600F028FE0546601C02D0044886
:101100000078044400F020FE401BA042FAD370BDDA
:101110004832002410B590F89830012B09D0022BEA
:1011200007D0D0F89C1041F00201C0F89C100120BB
:1011300010BD03689C6D0C4203D1DC6D44F00104CA
:1011400004E09C6D31EA04041FD00324DC658B05A8
:1011500005D50368D3F8E0401443C3F8E0404B05DD
:1011600005D50368D3F8E4401443C3F8E4400068AD
:10117000084A01EA0203446D074A1C4344651068AB
:1011800040EA91701060002010BDDC6D44F0020454
:10119000DCE70000FFFFCF3F14A80040704730B5E8
:1011A00090F89850039C012D07D0D0F89C1041F086
:1011B0000401C0F89C10012030BD0D01016845EA12
:1011C000820040EA43002043C1F88000002030BD87
:1011D00070477047F0B590F898400025022C04D075
:1011E000D0F89C1041F008012BE040294FF0004658
:1011F00005D0412929D0046D8C4219D942E00468F8
:10120000D4F8A07017F4FE0F12D0D4F8A4707F06A3
:1012100013D0D4F8A470FF0105D5D4F8A070B6EBB4
:10122000D77F00D10125D4F8A470466F446C24E028
:10123000D0F89C1041F0200103E0D0F89C1041F45C
:101240008071C0F89C100120F0BD0468D4F8B07023
:1012500017F4FE0FECD0D4F8B4707F06EDD0D4F8BC
:10126000B470FF0105D5D4F8B070B6EBD77F00D1CC
:101270000125D4F8B470866FC46CC7F305273D44CC
:101280006C4302E0446DC66F4C4306EB8404266851
:1012900016F080465660266836D026F06046166006
:1012A000D4F800C000262F4F0CF0005CC2F808C034
:1012B000D4F800C00CF0004CC2F810C0B4F804C060
:1012C0001FFA8CFCC2F81CC0D4F804C00CF4702CBB
:1012D000C2F80CC0D4F804C00CF4801CC2F814C0CE
:1012E000D4F804C00CF4001CC2F818C0D4F804C030
:1012F000CCF3066CC2F820C0D4F804C008344FEA1E
:10130000DC7CC2F824C008E0C6F38A46C7E700BF09
:1013100014F806C003F806C0761CD2F80CC007EB20
:101320001C4C9CF800C0B445F2D840290AD0412991
:101330000CD020294FF001020CD200688A40C0F87E
:1013400098200DE00068C0F8A85009E00068C0F8D7
:10135000B85005E0006801F01F018A40C0F89C20E9
:101360000020F0BD687A0008704700002DE9FF5F9B
:10137000DFF80CB304460BF10401DBF8000025682C
:101380000F68AA468007D5F85090696DD5F850804F
:101390006E6D2A6DD5F854C02B6D00EA87700090F1
:1013A00009F470496F6D286D01EA09010191DAF8BD
:1013B0005410DAF85490DAF8505008F00F0806EAA2
:1013C0000806029602F0F00203F071536FEA090674
:1013D0001F4000F060700CEA020CCDF80CC0F20562
:1013E00001EA00090CD4E843C00509D400214FF4F8
:1013F0008073CAF85030CBF800102046FFF7B4FFD6
:10140000700512D4E84340050FD4206800234FF440
:101410008068D0F8DC20D0F8E410C0F85080CBF819
:1014200000301140204600F041FBDFF858A2009840
:1014300050B12268830F00EA0A001065CBF8003033
:1014400020460099FFF7AAFE019850B12268830F49
:1014500000EA0A001065CBF800302046019900F040
:1014600027FB029850B12268830F00EA0A0010653A
:10147000CBF800302046029900F082FA039850B170
:101480002268830F00EA0A001065CBF8003020467E
:10149000039900F0EBFA30050CD4E843000509D4B9
:1014A000236800204FF400621A65CBF80000204644
:1014B00000F0FFFAB00512D4E84380050FD420688D
:1014C00000234FF40078D0F8D820D0F8E010C0F80E
:1014D0005080CBF800301140204600F0E8FA30038D
:1014E0000CD4E843000309D4236800204FF4002201
:1014F0001A65CBF80000204600F040FAF0030CD447
:10150000E843C00309D4236800204FF480321A65F1
:10151000CBF80000204600F0C8FA70030CD4E84372
:10152000400309D4226800204FF480231365CBF8D0
:101530000000204600F0B8FAB0030FD4E84380035F
:101540000CD4236800204FF400321A65CBF8000059
:10155000D4F89C0040F08000C4F89C00B9F1000F62
:101560000BD022684FEA997309EA0A001065CBF89C
:10157000003049462046FFF72CFE5FB12268BB0FC2
:1015800007EA0A001065CBF80030D4F89C00384315
:10159000C4F89C003C492068884268D16068814654
:1015A0008068800763D0D9F82060D9F82410D9F872
:1015B0002080D9F82400D9F820C0D9F82470D9F8AF
:1015C0002030D9F82450D9F8202003F4FC4306F049
:1015D0000F0AD9F824601D40D9F824B008F030086B
:1015E0000CF4C07C02F4F02211EA0A0100EA0808B7
:1015F00007EA0C0706EA0206D9F820A004D0C9F8C9
:101600002010204600F04DFAB8F1000005D06168C6
:1016100008624146204600F046FA6FEA0B00400699
:101620000ED46FEA0A0040060AD460684021C36BFA
:10163000C26B01622046190C02F03F0200F032FA40
:101640002FB1606807623946204600F029FA35B1AB
:1016500060680562D4F89C002843C4F89C0036B149
:1016600060680662D4F89C003043C4F89C00D4F84B
:101670009C00002802D02046FFF7AAFDBDE8FF9F8E
:1016800010A80040FFFFCF3F00A000402DE9F0412F
:1016900094B08D494C2204466846FEF7ECFF64B1D5
:1016A0008A4D2068A84202D100F58070606094F8ED
:1016B00098004FF0000820B108E0012014B0BDE808
:1016C000F081204684F8998000F002F92068816951
:1016D00021F01001816100F037FB0327064604E08A
:1016E00000F032FB801B0A2811D8206880690007AF
:1016F000F6D42068816941F00101816100F024FB8A
:1017000006460DE000F020FB801B0A2808D9D4F81B
:101710009C0040F00100C4F89C0084F89870CCE76D
:1017200020688069C007EDD02068816941F002011E
:101730008161207C01282068816937D041F0400117
:101740008161607C01282068816932D021F4804168
:101750008161A07C0128206881692DD041F48051ED
:1017600081612068A268816921F44071114381611F
:101770002068816921F0A40181612068016921F05C
:1017800010010161E068012819D010B302281BD0B4
:101790002068816941F0800181612068016941F020
:1017A00010010161E06803280ED012E021F0400131
:1017B000C6E741F48041CBE721F48051D0E72068AF
:1017C000816941F0040103E02068816941F0200152
:1017D0008161207E6FF0FF02D4E90773A68A1102AF
:1017E000400602EB0727A0F10070384327685B1E14
:1017F000184301EB06463043F861A068B0F5407F1E
:1018000011D104F12800A68C6FF00F0C89C801EBF0
:101810000641401E02EB0322104322680CEB071323
:1018200018430843D060206E30B12068626ED0F853
:10183000C0101143C0F8C010D4E917126846D14255
:1018400009D02168A36E51F8C82F50F8233022F038
:1018500007021A430A60216C49B12168626C51F891
:10186000BC3F50F8226023F0070232430A60A16CAB
:1018700051B12168E36C51F8BC2F50F8233022F0AD
:10188000700242EA03120A60216D51B12168626D53
:1018900051F8BC3F50F8220023F4E06242EA0020F5
:1018A00008602068A84204D16068816821F00301C3
:1018B0008160C4F894800121C4F89C8084F8981059
:1018C0002046FFF73FF8F9E6787A000800A00040CC
:1018D00010B5B6B00446142130A8FEF728FFC02189
:1018E0006846FEF724FF2249206888423DD1002047
:1018F0004FF40041CDE900104A0368461C9200F005
:101900007FFC08B1FEF7E2FF1A48016841F48071DC
:101910000160006800F48070359016480C3801684A
:1019200041F00201016000680923022200F0020078
:10193000359000204FF44071309130A9CDE931202D
:10194000CDE933030C4800F0DDF800220521132017
:1019500000F09CFA132000F08BFA002205211520DC
:1019600000F094FA152000F083FA36B010BD0000A4
:1019700000A00040EC4402580004025870470000E8
:101980002DE9F04788B082460024C80705940694E4
:1019900009D03348DFF8CC90051F0178012905D024
:1019A000022921D000BF08B0BDE8F0872E4A4021AF
:1019B00005AB04705046FFF70DFC68B9686AC9F8BA
:1019C0000000020E8DF80020030C8DF80130040A8F
:1019D0008DF802408DF80300002323480422694655
:1019E000B83802F0C3FFDEE7E978A846312922D1F2
:1019F0001C4F32265FF000022346047057F8225035
:101A0000521CD2B228185941B242F7D30023FEF734
:101A100037FD010E8DF81C10030C8DF81D30020AE5
:101A20008DF81E208DF81F000A230F48042207A9F5
:101A3000B83802F09BFF0C4A402105AB5046FFF737
:101A4000C9FB0028AFD198F80310D8F824504A1CDD
:101A500049F8215088F80320C8F82440A3E7000083
:101A600004000024DC320024F4350024704790F890
:101A70009810012907D0D0F89C1041F00401C0F85B
:101A80009C1001207047022180F898100022016804
:101A90008B6923F001038B61C0F89C2010467047CE
:101AA000704770477047704770477047704770477E
:101AB00070477047012810B501D0022810D1094C99
:101AC00000224FF40041204600F032F9064901207F
:101AD0008870810302462046BDE8104000F028B916
:101AE00010BD000000040258000000244FF0B04177
:101AF00010B5D1F88820024203D0C1F88800FFF762
:101B0000D9FF10BD2DE9F84F03247D4D00234FF080
:101B100001094FF0B04B4FF00F0AE9E009FA03F763
:101B20003A4076D00E7906F00306012E01D0022E3F
:101B300018D1D0F808C04FEA430ECE6804FA0EF868
:101B40002CEA080C06FA0EF646EA0C068660D0F877
:101B500004C00E792CEA070CC6F300169E4046EA34
:101B60000C0646600E79F643B6070BD0C6684FEAFE
:101B700043088F6804FA08FC26EA0C0607FA08F7FF
:101B80003743C7600E7906F00306022E12D1DE0835
:101B90000F694FEA437C00EB8606B646366A4FEA89
:101BA000DC6C0AFA0CF807FA0CF726EA0806374349
:101BB000CEF820700F7906684FEA430807F0030754
:101BC00004FA08FC07FA08F726EA0C063743076010
:101BD0004E6816F4403F1CD04A4E376847F0020763
:101BE000376036689F0706F00206009623F003066A
:101BF00006F1B046B6463F0FD6F80864DFF8088114
:101C00000AFA07FC404526EA0C0603D14FF0000C07
:101C100041E06CE0DFF8F4C0604502D14FF0010C08
:101C200039E0DFF8ECC0604502D14FF0020C32E041
:101C3000DFF8E0C0604502D14FF0030C2BE0DFF885
:101C4000D8C0604502D14FF0040C24E0DFF8CCC0CE
:101C5000604502D14FF0050C1DE0DFF8C4C06045BF
:101C600002D14FF0060C16E0DFF8B8C0604502D193
:101C70004FF0070C0FE0DFF8B0C0604502D14FF025
:101C8000080C08E0DFF8A4C0604502D14FF0090C51
:101C900001E04FF00A0C0CFA07FC4CEA060CCEF8F7
:101CA00008C44F68DBF80060FF0226EA020600D590
:101CB00016435F46CBF80060D1F804C0DBF804603F
:101CC0005FEA8C2C26EA020600D516437E606E6819
:101CD0004F6826EA0206BF0300D516436E602E68E1
:101CE0004F6826EA0206FF0300D516432E605B1CF0
:101CF0000A6832FA03F67FF411AFBDE8F88F0000EE
:101D000080000058F44402580000025800040258B1
:101D100000080258000C0258001002580014025823
:101D200000180258001C02580020025800240258D3
:101D30000AB1816170470904FBE7000001480068AF
:101D4000000C70470010005C01488068704700007C
:101D5000483200240248816802781144816070474B
:101D600048320024032010B500F0B0F801F0C0F8AC
:101D70000F4A104914681368C4F3032203F00F03D9
:101D80008A5CC95C02F01F0201F01F01D0400A4AC0
:101D900020FA01F11160094908600F2000F010F8E5
:101DA00008B1012010BD00F051F8002010BD000066
:101DB00018440258EC7A00085832002454320024A7
:101DC00010B5102804468AB02CD2002201462C20DF
:101DD00000F05CF82C2000F04BF81748046017481E
:101DE000016841F080010160006809A900F08000ED
:101DF0000890684601F008F80598B0B101F054F871
:101E000040000F4900220F4CB0FBF1F10E4840F2A8
:101E1000E7330460C0E90332491EC0E9011202F051
:101E20008BF828B101200AB010BD01F03DF8E8E7B9
:101E3000054802F0D1F8F6E74C320024E844025895
:101E400040420F00001C00401C360024074882B0AE
:101E5000016841F002010160006800220F2100F0DA
:101E600002000090901E02B000F010B8F444025836
:101E7000002809DB410900F01F028900012001F15F
:101E8000E0219040C1F80001704700000E4BF0B413
:101E90001B680D46C3F30223C3F10706042E00D9C5
:101EA0000426191D072901D2002300E0DB1E0124AE
:101EB00004FA06F19C40491E2940641E99401440D2
:101EC0002143F0BC03F083BE0CED00E0064900F0B6
:101ED000070210B54FF6FF040868044B204040EAA3
:101EE00002201843086010BD0CED00E00000FA0568
:101EF000134970B50A68D243520705D5096801F045
:101F00000701814213D118E00A6822F00702024358
:101F10000A60FFF719FF0A4D4FF47A760446083D30
:101F200007E000BFFFF710FF001BB04201D90120FE
:101F300070BD2868C0438004F4D4002070BD000048
:101F40000C4802580248016841F4807101607047F2
:101F50000048025810B500F085FF05490968054A98
:101F6000C1F30211515C01F01F01C84010BD000017
:101F700020440258EC7A0008494930B5484C0B1D02
:101F80000A68143409681D68246802F00303C5F365
:101F90000012C1F30531C4F3CC04002914FB02F292
:101FA00000EE102AF8EE400A75D03F4A9FED3D1A28
:101FB000B7EE000A6BB1DFED3D1A012B01D0022B09
:101FC00064D002EE101A1168F8EE422A81EEA22ABD
:101FD00021E0334C283C23689B0612D5344B2468FF
:101FE00001EE901A1168C4F3C104F8EE612AE340CF
:101FF00001EE903AC1F30801F8EE611A81EEA22ACF
:102000000BE001EE901ADFED2B2A00BFF8EE611A0B
:10201000116882EEA12AC1F3080101EE901A11683D
:10202000F8EE611A40EE811A71EE800A62EE200A23
:10203000C1F3462101EE101AB8EE411A31EE001A32
:10204000C0EE811ABCEEE11A80ED001A1168C1F3EE
:10205000064101EE101AB8EE411A31EE001AC0EE38
:10206000811ABCEEE11A80ED011A1168C1F3066114
:1020700001EE101AB8EE411A31EE000A80EE801A15
:10208000BCEEC10A80ED020A30BD04E001EE901AF8
:10209000DFED092ABAE70021016041608160F3E7C2
:1020A0002844025800000039384402580024744A79
:1020B0000090D0030024744C20BCBE4B494930B57D
:1020C000484C0B1D0A681C3409681D68246802F01E
:1020D0000303C5F30022C1F30551C4F3CC04002966
:1020E00014FB02F200EE102AF8EE400A75D03F4AC7
:1020F0009FED3D1AB7EE000A6BB1DFED3D1A012BE3
:1021000001D0022B64D002EE101A1168F8EE422AB8
:1021100081EEA22A21E0334C283C23689B0612D58D
:10212000344B246801EE901A1168C4F3C104F8EE30
:10213000612AE34001EE903AC1F30801F8EE611A1A
:1021400081EEA22A0BE001EE901ADFED2B2A00BFF0
:10215000F8EE611A116882EEA12AC1F3080101EEBE
:10216000901A1168F8EE611A40EE811A71EE800A39
:1021700062EE200AC1F3462101EE101AB8EE411AB0
:1021800031EE001AC0EE811ABCEEE11A80ED001AA1
:102190001168C1F3064101EE101AB8EE411A31EE92
:1021A000001AC0EE811ABCEEE11A80ED011A116826
:1021B000C1F3066101EE101AB8EE411A31EE000AC1
:1021C00080EE801ABCEEC10A80ED020A30BD04E048
:1021D00001EE901ADFED092ABAE7002101604160A3
:1021E0008160F3E728440258000000394044025857
:1021F0000024744A0090D0030024744C20BCBE4BD1
:102200002DE9FE4F0546DFF8E48350F8081B002453
:10221000F64FC943019005F12800264608F124082D
:10222000009008011DD4A86E50B1B0F5801F0CD0ED
:10223000B0F5001F0ED0B0F5401F1ED001240FE0F6
:10224000386840F40030386017E00198022102F04D
:102250007DFD03E00098022102F008FE04000CD08E
:1022600026462888C043C00523D4A86D05281ED261
:10227000DFE800F00C11161B1B00AA6ED8F8001046
:1022800021F440111143C8F80010EAE7386840F41F
:102290000030386009E00198002102F057FD03E0AA
:1022A0000098002102F0E2FD044674B100E0012430
:1022B00026462888C043800528D4E86D80281ED093
:1022C0000CDC90B140280ED114E0AA6DD8F80010B3
:1022D00021F007011143C8F80010EAE7C02813D025
:1022E000B0F5807F10D001240FE0386840F4003052
:1022F000386009E00198002102F028FD03E0009811
:10230000002102F0B3FD04469CB126462888DFF880
:10231000DC92C04309F12C0940052CD4D5F8A80063
:10232000B0F5800F20D00DDCA0B1B0F5001F0FD1AB
:1023300015E0EA6DD8F8001021F4E0711143C8F8F7
:102340000010E3E7B0F5C00F13D0B0F5000F10D0C8
:1023500001240FE0386840F40030386009E001984B
:10236000002102F0F3FC03E00098002102F07EFD62
:1023700004467CB126462888C04300052DD4D5F8F4
:10238000AC00B0F1007F21D00EDCA8B1B0F1807FAD
:1023900010D116E0D5F8A820D9F8001021F460017A
:1023A0001143C9F80010E6E7B0F1407F13D0B0F157
:1023B000806F10D001240FE0386840F4003038609E
:1023C00009E00198002102F0C1FC03E0009800211F
:1023D00002F04CFD044674B126462868C0438001D3
:1023E0001FD4E86CD8B110280FD0202812D0302884
:1023F00015D0012414E0D5F8AC20D9F8001021F054
:10240000E0611143C9F80010E7E7386840F4003094
:10241000386004E00198022102F098FC044674B18F
:1024200026462888C043C0042BD4286EB0F5005F30
:1024300020D00DDCA0B1B0F5805F0FD115E06B4866
:10244000EA6C2030016821F0300111430160E8E7B7
:10245000B0F5405F13D0B0F5804F10D001240FE0ED
:10246000386840F40030386009E00198002102F03B
:102470006DFC03E00098002102F0F8FC04468CB1EA
:1024800026462888C043800429D4686EB0F5403FB2
:1024900023D010DC08B3B0F5803F14D0B0F5003F76
:1024A0000FD115E02A6ED8F8001021F4E041114355
:1024B000C8F80010E5E7B0F5802F0ED0B0F5A02FDA
:1024C0000BD001240AE00198012102F03FFC03E057
:1024D0000098012102F0CAFC044694B126462888DF
:1024E000C04340042AD4D5F8B000B0F1405F23D0F7
:1024F00010DC08B3B0F1805F14D0B0F1005F0FD1F1
:1025000015E06A6ED8F8001021F4E0211143C8F8F4
:102510000010E4E7B0F1804F0ED0B0F1A04F0BD027
:1025200001240AE00198012102F010FC03E0009868
:10253000012102F09BFC044674B126462888C04362
:1025400000041FD4286FD8B1B0F1805F0ED0B0F175
:10255000005F10D0012414E0D5F8B020D9F80010A5
:1025600021F0E0411143C9F80010E7E7386840F472
:102570000030386004E00198012102F0E7FB0446D6
:1025800074B126462868C043C0011ED4A86CD0B1DF
:1025900001280ED0022811D0032814D0012413E002
:1025A0002A6FD8F8001021F040511143C8F80010EC
:1025B000E8E7386840F40030386004E00198022110
:1025C00002F0C4FB0446ACB126462868DFF81CB014
:1025D000C043ABF11C0B400252D40548016841F4E2
:1025E00080710160FFF7B0FB824611E02C44025875
:1025F00000480258FA48AA6C016821F0030111430F
:102600000160E2E7FFF7A0FBA0EB0A00642835D8E1
:10261000F4480068C005F5D58CBBDFF8C4A3B5F855
:10262000B4100AF1240ADAF8000001F4407100F451
:102630004070884211D0DAF80010DAF8002021F456
:10264000407142F48032CAF80020DAF8002022F407
:102650008032CAF80020CAF80010D5F8B400B0F5EE
:10266000807F1AD1FFF770FB029012E0FFF76CFB3E
:102670000299411A41F2883081420AD90324264640
:102680002878DFF85CA3C0430AF1080AC00721D00C
:102690003CE0DAF800008007E8D5D5F8B410C1F3C3
:1026A0000120032858460DD0016821F47C510160B7
:1026B000B5F8B420DAF80010C2F30B021143CAF8DF
:1026C0000010DDE7C84A036802EA111223F47C51C6
:1026D0001143ECE7E86F182816D005DCA0B10828F4
:1026E00008D0102804D10AE020280DD028280BD0CB
:1026F00001240AE00198012102F028FB03E0009880
:10270000012102F0B3FB044664B126462878C04399
:1027100080071ED4A86F062819D2DFE800F0160C37
:1027200011161616EA6FDAF8001021F0380111437D
:10273000CAF80010EAE70198012102F007FB03E064
:102740000098012102F092FB04467CB100E00124D4
:1027500026462878C04340071FD4D5F894000628A1
:1027600019D2DFE800F0160C11161616AA6FDAF867
:10277000001021F007011143CAF80010E9E70198A1
:10278000012102F0E3FA03E00098012102F06EFB60
:102790000446A4B100E0012426462878C043800600
:1027A0002BD4D5F89000B0F1405F24D011DC10B3E9
:1027B000B0F1805F15D0B0F1005F10D116E0D5F810
:1027C0009420D9F8001021F007011143C9F8001036
:1027D000E3E7B0F1804F0ED0B0F1A04F0BD0012451
:1027E0000AE00198002102F0B1FA03E0009802210A
:1027F00002F03CFB044694B126462878C0434006CC
:102800002BD4D5F89C00B0F5406F24D011DC10B368
:10281000B0F5806F15D0B0F5006F10D116E0D5F887
:102820009020DAF8001021F0E0411143CAF80010BE
:10283000E3E7B0F5805F0ED0B0F5A05F0BD00124C8
:102840000AE00198002102F081FA03E000980221D9
:1028500002F00CFB044694B126462878C0430006DB
:102860002BD4D5F8A000B0F5C04F24D011DC10B3A4
:10287000B0F5005F15D0B0F5804F10D116E0D5F857
:102880009C20D9F8001021F4E0511143C9F8001040
:10289000E3E7B0F5004F0ED0B0F5204F0BD0012488
:1028A0000AE00198002102F051FA03E000980221A9
:1028B00002F0DCFA044654B126462878C0430007EB
:1028C0001ED4D5F88400B0F5805F0AD00FE0D5F8AB
:1028D000A020D9F8001021F460411143C9F800107C
:1028E000EBE70098022102F0C1FA00B10126D5F809
:1028F0008420DAF8001021F440511143CAF8001086
:102900002878C043C00613D4D5F89800B0F5807F6E
:1029100005D10098022102F0A9FA00B10126D5F8EC
:102920009820D9F8001021F440711143C9F8001023
:102930002868C043000316D4D5F8A40038B1B0F518
:10294000803F09D0B0F5003F0BD001240AE0019888
:10295000002102F0FBF903E00098022102F086FA60
:1029600004468CB126462868C043400322D4D5F8DB
:102970008800B0F5801F11D0B0F5001F13D0B0F55E
:10298000401F15D0012414E0D5F8A420D9F8001078
:1029900021F440311143C9F80010E4E7386840F4ED
:1029A0000030386004E00098012102F05FFA04462C
:1029B0005CB126462868C043C00323D4286DA8B163
:1029C000B0F5803F17D001241BE0D5F88820DAF855
:1029D000001021F440111143CAF80010EAE700008A
:1029E0004C44025800480258CFFFFF00386840F4BA
:1029F0000030386004E00198022102F0A7F9044693
:102A0000E4B126462868C043800005D4009802211E
:102A100002F02CFA00B101262868C04380031BD4C1
:102A2000D5F88000B0B1B0F5807F0FD0B0F5007F51
:102A300010D0B0F5407F0DD001240CE05A482A6D2B
:102A4000016821F4803111430160DBE7386840F40C
:102A500000303860ECB326462868C043C00207D473
:102A60006A6FD8F8001021F000411143C8F8001037
:102A70002868C043C00008D4D5F8B820DBF800109F
:102A800021F480411143CBF800102868C043800234
:102A900007D4EA6ED8F8001021F080711143C8F80D
:102AA00000102868C04340000CD4DBF8001021F46B
:102AB0000041CBF80010DBF80010D5F8BC20114322
:102AC000CBF800102868C04308D437486A6D016805
:102AD00000E018E021F04051114301602868C04334
:102AE000000208D4D5F88C20DAF8001021F4400157
:102AF0001143CAF8001028790024C04300F00100F7
:102B000020430AD00FE0D5F88020DAF8001021F435
:102B100040711143CAF800109EE70198002102F0AD
:102B200015F900B106462879C04300F002002043A1
:102B300005D10198012102F009F900B10646287972
:102B4000C04300F00400204305D10198022102F0A7
:102B5000FDF800B106462879C04300F00800204384
:102B600005D10098002102F081F900B106462879CC
:102B7000C04300F01000204305D10098012102F06D
:102B800075F900B106462879C04300F020000443DF
:102B900004D10098022102F069F900B916B10120B0
:102BA000BDE8FE8F0020FBE74C4402582DE9F05FA2
:102BB00004000F467ED0DFF83882D8F8000000F01D
:102BC0000F00B8420CD2D8F8001021F00F013943A1
:102BD000C8F80010D8F8000000F00F00B84269D122
:102BE0002078844D40070AD52069296801F07001DA
:102BF000884204D9296821F07001014329602078B6
:102C00007C4E361D00070AD56069316801F07001FD
:102C1000884204D9316821F0700101433160207885
:102C2000C0060AD5A069316801F4E061884204D980
:102C3000316821F4E061014331602078DFF8B4B1FC
:102C400080060BF1080B0CD5E1695846DBF8002033
:102C500002F07002914204D9026822F070020A4325
:102C60000260207880070AD5E068296801F00F012A
:102C7000884204D9296821F00F0101432960207896
:102C8000C0073ED05B49A2682868183920F47060FC
:102C9000104328606068022818D0032819D00968FA
:102CA000012819D0490700294ADADFF848A1AAF11A
:102CB000080A00E044E0DAF8002022F007020243AC
:102CC000CAF80020FFF740F8814612E0096889033E
:102CD000E9E709688901E6E7C905E4E7FFF734F8A1
:102CE000A0EB090141F28830814202D90320BDE8FE
:102CF000F09F6168DAF8000000F03800B0EBC10F17
:102D0000ECD1207880070AD5E068296801F00F012E
:102D1000884204D2296821F00F0101432960D8F8C4
:102D20000010404601F00F01B9420BD9016821F0B3
:102D30000F0139430160006800F00F00B84201D074
:102D40000120D4E7207840070AD52069296801F0DE
:102D50007001884204D2296821F070010143296082
:102D6000207800070AD56069316801F07001884257
:102D700004D2316821F07001014331602078C0062F
:102D80000AD5A069316801F4E061884204D2316853
:102D900021F4E06101433160207880060CD5E169BF
:102DA0005846DBF8002002F07002914204D202681B
:102DB00022F070020A43026000F09AF80E492A6875
:102DC0002B68C2F3032203F00F038A5CC95C02F094
:102DD0001F0201F01F01D040084A20FA01F11160E2
:102DE0000749086007480068BDE8F05FFEF7E8BFE4
:102DF0000020005218440258EC7A0008583200248F
:102E0000543200244C32002470B5144C3F2202602E
:102E1000124A24680832131D114D04F0070444605F
:102E200016681C1D06F470668660166806F00F06AC
:102E3000C660126802F0700202611A6802F0700245
:102E400042611A6802F4E0628261226802F0700254
:102E5000C261286800F00F00086070BD104402587D
:102E60000020005230B500F043F80B4A0B490C4BE0
:102E700015681468C5F3032204F00F048A5C095D29
:102E800002F01F0201F01F01D040064A20FA01F1B2
:102E900019601060084630BD18440258EC7A0008EA
:102EA000583200245432002400B5FFF7DBFF0549F7
:102EB0000968054AC1F30211515C01F01F01C840C5
:102EC00000BD00001C440258EC7A000800B5FFF772
:102ED000C9FF05490968054AC1F30221515C01F0A7
:102EE0001F01C84000BD00001C440258EC7A0008D5
:102EF000454970B545480968434B103B11F038020D
:102F000008D00111082A03D0102A0BD0182A0BD0A0
:102F1000084670BD19688906FBD51968C1F3C1015F
:102F2000C84070BD3A4870BD3749374D18310C1D47
:102F300024350A68096826682D6802F0030406F043
:102F40000102C1F30511C5F3CC0515FB02F200EE39
:102F5000102AB8EE400AE9B32F4ADFED2E0AB7EE89
:102F6000001A6CB1DFED2D1A012C01D0022C43D0D8
:102F700002EE101A1068F8EE422A81EEA22A1EE034
:102F80001C68A40611D51B6801EE901A1168C3F3E2
:102F9000C103F8EE612AD84001EE900AC1F308009F
:102FA000F8EE611A81EEA22A0BE001EE901ADFED35
:102FB0001C2A00BFF8EE611A106882EEA12AC0F345
:102FC000080001EE900AF8EE611A40EE201A31EE88
:102FD000810A00E015E022EE000A1068C0F34620E6
:102FE000401C00EE900AF8EE600A80EE201ABCEE5B
:102FF000C10A10EE100A70BD01EE901ADFED092A29
:10300000D8E7002070BD0000104402580090D003A3
:1030100040787D0100000039304402580024744A91
:103020000024744C20BCBE4B2DE9F05F04007DD021
:10303000FF4F2078FE4D1837DFF8F493103DC0079E
:1030400048D0D9F80000396800F03800102815D0B1
:10305000182803D101F0030002280FD06068B0F5F2
:10306000803F12D010B1B0F5A02F18D0286820F4FE
:1030700080302860286820F4802009E028688003D8
:1030800028D560680028D2D024E0286840F4803039
:103090002860606888B1FEF757FE064609E0286898
:1030A00040F480202860F0E7FEF74EFE801B642885
:1030B0006FD828688003F7D50CE0FEF745FE06467A
:1030C00005E000BFFEF740FE801B6428F0D82868AA
:1030D0008003F7D4207841F20308D54E0C3E8007D8
:1030E00069D5D9F80000396810F038000ED01828DA
:1030F00001D188070AD0E06890B3296821F019014E
:1031000001432960FEF720FE824631E0286840072F
:1031100002D5E06800288AD0E168286820F019000C
:1031200008432860FEF710FE824607E0DFE000BF9C
:10313000FEF70AFEA0EB0A000228B9D8286840076B
:10314000F6D500BFFEF7FAFD40451BD820694028A0
:1031500012D0316821F47C3141EA003030602AE03D
:1031600018E000BFFEF7F0FDA0EB0A0002289FD890
:1031700028684007F6D5E5E7306820F47C3040F455
:103180000030EBE7207C316821F0FE4141EA00602D
:10319000E4E70DE1286820F001002860FEF7D4FD87
:1031A000824605E0FEF7D0FDA0EB0A0002288DD88C
:1031B00028684007F6D42078C0065DD5D9F800000D
:1031C000DFF86CB2396800F03800ABF1040B082866
:1031D00010D0182803D101F0030001280AD0E069BB
:1031E0000028286838D040F080002860FEF7ACFD49
:1031F000824623E02868C00523D5E069802876D17F
:103200001FE0206A202821D0316821F0F84141EAEE
:103210008060306030E000BF94F82010DBF80020C0
:1032200022F07C5242EA0161CBF8001024E000BF9A
:10323000FEF78AFDA0EB0A00022898D82868C0058E
:10324000F6D5FEF77BFD4045E6D8DAE7306820F09A
:10325000F84040F08040DCE720F080002860FEF776
:1032600073FD064605E000BFFEF76EFD801B0228D9
:103270009DD82868C005F7D42078000729D56C4868
:103280006169643000298046016811D041F0010174
:103290000160FEF759FD064605E000BFFEF754FD4C
:1032A000801B0228C9D8D8F800008007F6D510E0A6
:1032B00021F001010160FEF747FD064605E000BF71
:1032C000FEF742FD801B022872D8D8F80000800764
:1032D000F6D42078800623D5A0690028286810D06D
:1032E00040F480502860FEF72FFD064605E036E1E9
:1032F000FEF72AFD801B02285AD828688004F7D5DB
:103300000EE020F480502860FEF71EFD064604E023
:10331000FEF71AFD801B02284AD828688004F7D4DB
:10332000207840074FD5DFF80C81D8F8001041F421
:103330008071C8F80010FEF707FD064605E000BFE3
:10334000FEF702FD801B642832D8D8F80000C005C3
:10335000F6D5374EA068603601280AD008B1052896
:1033600013D0306820F001003060306820F0040095
:1033700002E0306840F001003060A06841F2883A15
:1033800090B1FEF7E1FC80460AE0306840F00400AE
:103390003060EEE7FEF7D8FCA0EB0801514507D8F6
:1033A00030688007F6D50EE0FEF7CEFC804607E0D9
:1033B00084E000BFFEF7C8FCA0EB080151457DD8B2
:1033C00030688007F6D4606AB0B3DFF86480D9F85B
:1033D000001008F120084FF6F87B08F10409C1F34A
:1033E000C2010329A8F1040A69D00228286820F044
:1033F0008070286003D0FEF7A7FC044684E0FEF747
:10340000A3FC064605E000BFFEF79EFC801B0228D9
:1034100077D828688001F7D4E26A40F2F33138683F
:1034200054F8283F884340EA02101843386004E00B
:103430001044025800480258B5E0217B43462289D7
:103440004FF4FE0C208A4FF0FE474902267D521EA3
:10345000401EA1F50071C2F308088AB2761E0CEA7C
:10346000004042EA08020243504607EA06610A4366
:103470001A60DAF8002022F00102CAF80020D9F818
:103480000020266A22EA0B0242EAC602C9F800209E
:10349000DAF80010A26921F00C011143CAF80010FB
:1034A0000168E26921F0020111430160016841F401
:1034B00080310160016841F4003101E021E027E042
:1034C0000160016841F480210160016841F001015F
:1034D0000160286840F080702860FEF735FC0446E3
:1034E00005E000BFFEF730FC001B022809D8286861
:1034F0008001F7D557E000BFFEF726FC001B02282D
:1035000002D90320BDE8F09F28688001F4D44AE086
:1035100039680128D8F8000021D0A26A01F003031D
:1035200093421CD1E26AC1F305118A4217D1216B83
:10353000C0F30802491E8A4211D1616BC0F34622D2
:10354000491E91420BD1A16BC0F30642491E914224
:1035500005D1E16BC0F30660491E814201D0012014
:10356000D0E7A16C4E46D9F80000C0F3CC008142F0
:1035700019D0DAF80000554620F00100CAF8000022
:10358000FEF7E2FB4FEA0007FEF7DEFBB842FBD096
:10359000A26C306820EA0B0040EAC2003060286864
:1035A00040F0010028600020ACE7000070B5040086
:1035B0004FF0010041D094F8210028B9002084F890
:1035C0002000204600F042F8022084F82100206804
:1035D000C168C943C90631D5CA2242625321206855
:1035E0004162204601F0DEFC18BB2068164A816863
:1035F00011408160D4E90003A569226981682A43EA
:1036000019431143816022682189E06840EA014042
:103610001061204601F0EAFC58B92168CA6C22F01A
:103620000302CA6422686369E169D56C19432943BE
:10363000D1642268FF21516208B170BD00200121D0
:1036400084F8211070BD0000BFFF8FFF10B5B0B02F
:103650000446C0216846FDF76AF80B492068884295
:1036600010D1010200208A132D92CDE90010684686
:10367000FEF7C6FD08B1FDF729F90448016841F4D9
:103680000041016030B010BD004000587044025845
:1036900070B5044690F820000B4601281BD0012687
:1036A00084F82060022084F821005878AAB1DA78E2
:1036B000000299781B7841EA024540EA433005430D
:1036C0002268CA215320516221684862204601F0D5
:1036D00069FCC8B11FE0022070BDC10603D500F02F
:1036E000EF000A305870D87801F050FC0204587886
:1036F00001F04CFC42EA0022987801F047FC19786E
:10370000024342EA4135DBE72168084805404D6045
:10371000204601F06BFC2268FF21516208B984F851
:103720002160002184F8201070BD00003FFFFF00E1
:103730002DE9F041044690F8200090460D460128FE
:1037400012D0012784F82070022184F82110CA20A9
:1037500022685321506220684162204601F022FC19
:103760004FF0000618B12AE00220BDE8F081206881
:10377000B8F1000F80684FEA406025D0002800DBD8
:10378000EE7068782A78A978EB784FEA002C41EA45
:1037900002404CEA835108432268184908401060EF
:1037A0002068816821F4802181602168D5E90302C5
:1037B0008B68104318438860204601F017FC22688C
:1037C000FF215162A0B115E0002800DBEE702878DF
:1037D00001F0DCFB0204687801F0D8FB42EA002229
:1037E000A87801F0D3FBE978024342EA8150D3E79D
:1037F00084F8217084F82060B7E700007F7F7F00A5
:1038000070B5016804460B48C860FEF79DFA4FF496
:103810007A76054607E000BFFEF796FA401BB042F5
:1038200001D9032070BD2068C0688006F4D500204F
:1038300070BD00005FFF0300704700002DE9F047F6
:1038400004460068002103694269876894F8816032
:1038500000F130095FEA025C03EA02050AD51A07A3
:1038600008D5816941F400618161204600F00DFABC
:10387000BDE8F08715F0600F08D1680706D5616FC5
:1038800020468847216F20468847012105F04100E6
:10389000012805D1680703D4216F204688470121FC
:1038A00005F02200022806D1680704D4616F204683
:1038B000BDE8F04708470029DAD128074FF0010892
:1038C0005BD52068816941F00801816120688169C8
:1038D00041F0100181612068816941F400618161DA
:1038E0002068016921F0080101612068806810F4F6
:1038F000404F20D023E0E0680F2806D92068616E91
:10390000006B0860606E001D0FE0072806D9B9F84B
:103910000000616E0880606E801C06E02068616EA9
:1039200090F830000870606E401C6066B4F86A0061
:10393000401EA4F86A00B4F86A000028DBD12046D3
:1039400001F084FB84F88180D4F8840018B120460B
:10395000FFF772FF8CE7052E07D0042E09D0032E47
:1039600086D1204600F028FA82E7204600F026FAA9
:103970007EE7204600F088F97AE715F4587FE9D011
:1039800068060AD5D4F8840040F00400C4F8840026
:103990002068816941F040018161A8050AD5D4F809
:1039A000840040F00100C4F884002068816941F47B
:1039B00000718161E8050AD5D4F8840040F0080060
:1039C000C4F884002068816941F480718161A8068F
:1039D0000AD5D4F8840040F08000C4F88400206840
:1039E000816941F020018161D4F884000028B1D0C0
:1039F000206840F26B32C7F381310368032923F05A
:103A0000010101602068016921EA0201016102D01F
:103A100084F881809BE72068104D816821F4404143
:103A20008160E06F50B10565E06FFDF71FFA28B1C6
:103A3000D4F8840040F04000C4F88400A06F00284F
:103A400088D00565A06FFDF711FA00288CD0D4F856
:103A5000840040F04000C4F8840009E709510008E0
:103A60002DE9F047040029D0594A4FF00009206899
:103A7000584B594D9042C4F8289006D0984204D033
:103A8000A84202D0E1680F2918D8E1684FF0010A76
:103A9000E76B0831C9080AEB57167143904205D00D
:103AA000984203D0A84201D0082907D8904203D0F9
:103AB000984201D0A84204D1102902D90120BDE8C2
:103AC000F08794F8810020B9204684F8809000F0B7
:103AD00085F8022084F881002068016821F0010146
:103AE00001602068A1698268B1F1806F02F4F81169
:103AF00010D16268B2F5800F01D01AB10AE0A26B52
:103B000022B107E0A26BB2F1805F03D1026842F4F8
:103B1000805202606068400209D5E068072806D339
:103B20002068236D026822F480721A4303E0206843
:103B3000026822F480720260A66AE069E26B25687E
:103B40003043E3680A4310431843A860D4E90D02E8
:103B5000D4E90581636A25691843D4F820C00A4373
:103B6000266810432843A56DD4E90172D4E91231C7
:103B700040EA080040EA0C00384308431043184369
:103B80002843F060606868B92068816821F4C051FA
:103B900041F4006181602068816821F4C06141F4D2
:103BA000806181602068016D21F00101016560681C
:103BB000400206D52068626DC16821F000411143C2
:103BC000C160C4F8849084F881A0002077E70000E9
:103BD0000030014000380040003C004070B5B6B0F5
:103BE0000446142130A8FCF7A2FDC0216846FCF76A
:103BF0009EFD2249206888423ED181140020189001
:103C00000446CDE900106846FEF7FAFA08B1FCF761
:103C10005DFE1B48016841F400410160006800F44A
:103C20000040359016480838016841F002010160F3
:103C3000006806210225134E00F00200359018207E
:103C40003090CDE93154CDE9334130A93046FDF70C
:103C500059FF072120203090CDE93154CDE933417F
:103C600030A93046FDF74EFF002205213320FEF734
:103C70000DF93320FEF7FCF836B070BD003C004073
:103C8000E84402580004025870477047F0B590F8B5
:103C900080504FF000060468012D04F1200E0AD078
:103CA00090F881C00127002580F88070BCF1010FD9
:103CB00003D002211EE00220F0BDD1B1CAB1C3B1D0
:103CC000C7684FF0050CC16580F881C0C0F884500A
:103CD000A0F8623042662C300F2F83868387C3871B
:103CE000C18EA0F12C0009D92D4A42672D4A0267E6
:103CF0000EE0012180F880500846F0BD072F03D95F
:103D0000294A0267294A02E0294A0267294A42678A
:103D1000E26822F4C022E260026854686FF30F0484
:103D20001C4354600268136843F0010313601EE0F3
:103D3000C1680F2905D9C16D09681162C16D091DDE
:103D40000DE00729C16D05D90988AEF80010C16DD5
:103D5000891C04E0097882F82010C16D491CC165F6
:103D6000B0F86210491EA0F86210B0F86210026844
:103D700053699B0701D50029DAD1116940F26C73B0
:103D8000194311614168B1F5800F04D101680A68D7
:103D900042F400720A6080F880503046F0BD0000A6
:103DA000D55100084F51000823510008A9510008BF
:103DB0007B51000801520008704700002DE9F041D6
:103DC0002E4988422DED028B3BD12D4800780528E5
:103DD00002D0042805D007E0294E343606F6844781
:103DE00002E0284E06F68447254827490422801C15
:103DF000FCF7D0FB224CB6EE008B241F04F10A0521
:103E000018B321490422A01D091DFCF7C3FB00289B
:103E100017D1206907EB800090ED000A012001F026
:103E200037FF94ED0C0B010E020C30EE080B030A69
:103E300084ED0C0B29706A70AB70E8702069401C2F
:103E40002061BDEC028BBDE8F081606906EB80006B
:103E500090ED000A002001F01BFF94ED0A0B010E0B
:103E6000020C30EE080B030A84ED0A0B29706A700D
:103E7000AB70E8706069401C6061E2E76834002460
:103E80000400002440190024F479000870477047AA
:103E900070470000F0B590F83C20012A3BD01F4E3F
:103EA000012480F83C40022280F83D2002681C4D2D
:103EB0005368B242D2F808C001D0AA4203D14F6879
:103EC00023F470033B430F6823F070031F435760D4
:103ED0000268B24213D0B2F1804F10D0114B9A4217
:103EE0000DD0114B9A420AD0104B9A4207D0AA42E9
:103EF00005D00F4B9A4202D00E4B9A4204D18968EA
:103F00002CF0800319439160002180F83D4080F837
:103F10003C100846F0BD0220F0BD0000000001404A
:103F2000000401400004004000080040000C004074
:103F3000001800400040014010B5040003D094F880
:103F40003D0010B107E0012010BD002084F83C00C6
:103F5000204600F023F8022084F83D002068211D4F
:103F600001F068FA012084F8480084F83E0084F8E3
:103F70003F0084F8400084F8410084F8420084F84F
:103F8000430084F8440084F8450084F8460084F82F
:103F9000470084F83D00002010BD000008B500680F
:103FA0000B49884212D10B48016841F001010160C0
:103FB00000680022052100F0010000901920FDF7A3
:103FC00065FFBDE808401920FDF752BF08BD00009D
:103FD00000000140F044025890F83D10012901D042
:103FE00001207047174A022180F83D100168CB6814
:103FF00043F00103CB600068904214D0B0F1804FD1
:1040000011D0114988420ED0104988420BD0104976
:10401000884208D00F49884205D00F49884202D013
:104020000E49884207D181680D4A1140062906D001
:10403000B1F5803F03D0016841F00101016000202B
:1040400070470000000001400004004000080040EC
:10405000000C0040000401400018004000400140F6
:104060000700010070B5044690F83C0000250128C7
:1040700014D03A4B012684F83C60022084F83D00BD
:1040800022689068184020F47F409060086870288B
:104090002FD010DC10F00F0F03D022E04FF0020001
:1040A00070BD4FEA2012072A1BD2DFE802F05353FB
:1040B00053534B394100B0F1101F4BD009DCB0F520
:1040C000805F0FD0B0F5005F1ED0B0F5801F08D123
:1040D00040E0A0F5801120393CD010293AD02029A9
:1040E00038D0012584F83D60002084F83C00284643
:1040F00070BD4A682068D1E9021301F0FDF920681B
:10410000816841F0770109E04A682068D1E902132B
:1041100001F0F2F92068816841F480418160E1E7B3
:10412000CA684968206801F0FBF92068502106E060
:10413000CA684968206801F004FA2068602101F02B
:10414000E5F9CFE7CA684968206801F0E9F9206815
:104150004021F4E7226801461046F0E788FFCEFFD1
:10416000704770B50446006800250169C943890796
:1041700015D4C168C943890711D4EA1E026101211F
:104180002177206880698007204602D0FFF7E8FF8A
:1041900004E000F0A7F8204600F0A5F82577206895
:1041A0000169C943490717D4C168C943490713D4F2
:1041B00002216FF00402026121772068806910F407
:1041C000407F204602D0FFF7CBFF04E000F08AF8E2
:1041D000204600F088F8257720680169C94309075F
:1041E00016D4C168C943090712D404216FF008022C
:1041F000026121772068C0698007204602D0FFF75E
:10420000AFFF04E000F06EF8204600F06CF8257770
:1042100020680169C943C90617D4C168C943C906E2
:1042200013D408216FF01002026121772068C06961
:1042300010F4407F204602D0FFF792FF04E000F028
:1042400051F8204600F04FF8257720680169C943EE
:10425000C90708D1C168C943C90704D1891E0161D2
:10426000204600F041F820680169C943090609D4D5
:10427000C168C943090605D46FF080010161204679
:10428000FFF705FE20680169C943C90509D4C16863
:10429000C943090605D46FF4807101612046FFF718
:1042A000F5FD20680169C943490609D4C168C943BD
:1042B000490605D46FF040010161204600F02AF85C
:1042C00020680169C94389060BD4C168C9438906BE
:1042D00007D46FF0200101612046BDE87040FFF770
:1042E000D7BD70BD70477047074A0168914203D13E
:1042F00006494A6A521C4A6200680549884201D14F
:10430000FDF728BD704700000000014000000024B8
:10431000001C0040704730B590F88410012918D077
:10432000012280F884202421C0F888100022202453
:1043300001680B680D6823F0005325F001050D603E
:10434000426601680B60C0F8884080F884201046FF
:1043500030BD022030BD7047704770B5044690F8FC
:10436000840001281DD0012284F884202420C4F870
:10437000880020680568026822F001020260206857
:10438000826822F060620A438260204601F0F2F8FF
:104390002268202100201560C4F8881084F8840069
:1043A00070BD022070BD70B5044690F884000128ED
:1043B0001DD0012284F884202420C4F888002068BD
:1043C0000568026822F0010202602068826822F01B
:1043D00060420A438260204601F0CCF82268202126
:1043E00000201560C4F8881084F8840070BD022095
:1043F00070BD7047704770472DE9F0410768002590
:10440000044640F60F030226F8693968BA68184274
:104410000AD183067ED501F0200302F0805C53EAC6
:104420000C0377D0616F74E1CF4BDFF840C31340CA
:1044300001EA0C0C53EA0C0C6CD05FEAC07C0CD087
:104440005FEAC15C09D54FF0010CC7F820C0D4F871
:10445000907047F00107C4F89070870709D5D70717
:1044600007D027683E62D4F8906046F00406C4F88E
:10447000906046070AD5D60708D0276804263E6212
:10448000D4F8906046F00206C4F8906006070CD598
:1044900001F020061E4308D0266808233362D4F8B2
:1044A000903043F00803C4F8903003050BD54B015E
:1044B00009D526684FF400633362D4F8903043F096
:1044C0002003C4F89030D4F89030002B3DD0800603
:1044D00009D501F0200002F08051084303D0616F3C
:1044E00009B1204688472168D4F8900089684906B8
:1044F00002D410F0280F2AD0204601F021F92068BC
:10450000806840061ED52068083050E8001F21F062
:10451000400100E021E040E80012002AF3D1D4F885
:10452000800078B192490165D4F88000FCF79EFCC8
:1045300000280AD0D4F88000016D00E02046BDE8D4
:10454000F04108472046FFF756FFBDE8F0812046BE
:10455000FFF751FFC4F89050F7E7D4F86CC0202360
:10456000BCF1010F7ED15FEAC06C7BD55FEAC16C04
:1045700078D51020386220688068400673D5D4F85A
:1045800080107C4A0868904234D07A4A18329042AF
:1045900030D0784A303290422CD0764A483290421D
:1045A00028D0744A6032904224D0724A78329042C5
:1045B00020D0704A903290421CD06E4AA83290426D
:1045C00018D06D4A904215D06B4A1832904211D0E3
:1045D000694A303290420DD0674A4832904209D041
:1045E000654A6032904205D0634A7832904201D0E9
:1045F000614A903240680004000CA6D0B4F85C20F8
:104600008242A2D9A4F85E00C869B0F5807F2FD09D
:10461000216851E8000F20F4807041E80002002A70
:10462000F6D12068083050E8001F21F0010140E871
:104630000012002AF5D12068083050E8001F21F050
:10464000400140E80012002AF5D1C4F88C30E5663C
:10465000216851E8000F20F0100041E80002002A14
:10466000F6D101E040E00BE0D4F88000FCF74EFA10
:104670002667B4F85C00B4F85E10401A81B22FE0EF
:10468000B4F85C00B4F85E10B4F85E20401A81B251
:10469000002AB2D00029B0D0226852E8000F20F4DE
:1046A000907042E80007002FF6D1344F206800F1E7
:1046B000080050E8002F02EA070240E8002CBCF195
:1046C000000FF3D1C4F88C30E5666567206850E8C8
:1046D000002F22F0100240E80023002BF6D12667BD
:1046E0002046FFF738FE30E7C60209D5560207D547
:1046F0004FF4801038622046BDE8F041FFF77ABEE3
:1047000006060AD501F0800602F40002164304D022
:10471000A16F00297FF412AF17E7420611D54A06B0
:104720000FD52046026852E8001F21F0400142E800
:104730000014002CF6D1C0F88830856700F06EF9BF
:1047400003E7020206D54A0004D52046BDE8F04141
:10475000FFF74FBEC001C6D50029C4DA2046BDE828
:10476000F041FFF7F9BD0000010000102001000436
:104770002B5700081000024010040240FEFFFFEF1C
:1047800010B5040003D0D4F8880010B107E0012070
:1047900010BD002084F88400204600F027F8242073
:1047A000C4F888002068016821F0010101602046FA
:1047B00000F0F0FF0128EBD0A06A10B1204600F015
:1047C000FBFE2068416821F49041416020688168C7
:1047D00021F02A0181602068016841F00101016037
:1047E0002046BDE8104000F04BBF000010B5B6B049
:1047F0000446142130A8FBF79AFFC0216846FBF756
:1048000096FF1D492068884233D100201E90022166
:104810000446CDE900106846FDF7F2FC08B1FCF74C
:1048200055F81648016841F400210160006800F461
:104830000020359011480838016841F004010160FA
:10484000006830AB022100F0040035904FF4406066
:10485000082283E813000A4830A9CDE93342FDF766
:1048600051F9002205213420FDF710FB3420FDF71B
:10487000FFFA36B010BD0000004C0040E84402587A
:10488000000802582DE9F84F0446D0F88C009B46EA
:1048900016460D46202802D00220BDE8F88FC5B18B
:1048A000BEB10027C4F890702220C4F88C00E766DF
:1048B0002034FDF749FA824654F8180CA6874FF4C5
:1048C0008053E687FF21203C984207D1226912B12C
:1048D00019E00120E1E740F2FF1114E04FF07F0200
:1048E00078B1B0F1805F11D0A4F860709842B4F84C
:1048F00060704FF0200801D1206970B12E4600256C
:104900000CE0266936B9A4F86010EFE7216909B117
:104910003F21F8E7A4F86020E8E7002607F0FF0948
:10492000B4F85E00F0B10022534620212046CDF8B5
:1049300000B001F005F918B1C4F88C800320ACE791
:104940002068406A56B100EA090006F8010B00BF72
:10495000B4F85E00401EA4F85E00E1E7384025F898
:10496000020BF5E7C4F88C80002096E72DE9F843A8
:104970000446D0F88800984616460D46202802D0F6
:104980000220BDE8F883A5B19EB10021C4F89010C3
:104990002120C4F888001834FDF7D6F9814654F870
:1049A000100CA687E6872027183CB0F5805F02D060
:1049B00003E00120E5E7206910B12E46002510E054
:1049C00000260EE08021204601F0BAF8C0B9DEB121
:1049D00016F8010B21688862B4F85600401EA4F84E
:1049E0005600B4F856004B464FF00002CDF8008058
:1049F0000028E7D14FF04001204601F0A1F848B16E
:104A0000C4F888700320BCE735F8020B2168C0F3B6
:104A10000800E0E7C4F888700020B2E77047FEE7BE
:104A2000054C00256E1E0020314601F0AFFE656288
:104A3000A06902F035F9F6E70000002418480021CB
:104A400070B5164C012281600D2504600F26C160EF
:104A5000022402740423417481744661C0E906256E
:104A6000C0E9084282623224C262C0E90C2181633B
:104A7000C0E90F14C0E91131C0E913314365583062
:104A8000142480E81600C0E903135838FCF7FEFD33
:104A9000002801D072B6FEE770BD000000A0004003
:104AA000A43300242DE9F04387B014216846FBF7B6
:104AB0003EFE3748016841F004010160016801F0E1
:104AC00004010591016841F001010160016801F0F4
:104AD00001010591016841F002010160016801F0E6
:104AE00002010591016841F008010160016801F0CF
:104AF00008010591016841F0100101600068002281
:104B0000244F202100F0100005903846FDF710F9E1
:104B1000DFF884804CF20106002231464046FDF762
:104B200007F9DFF87890002202214846FDF700F9E6
:104B300000246946012520200090CDE90154384623
:104B40000394FCF7DFFF00966946CDE90154404627
:104B50000394FCF7D7FF022603204FF488118DE859
:104B600043000F486946FCF7CDFF00966946CDE942
:104B7000015448460394FCF7C5FF00220521072095
:104B8000FDF784F90720FDF773F907B0BDE8F0835E
:104B9000E044025800000258000402580010025875
:104BA000000C025810B586B014216846FBF7BFFD13
:104BB0001D4800241B497F220594FF23E0E80214CE
:104BC00080E81C0004614461C4601748FEF7EEFCF5
:104BD00008B172B6FEE716208DF800008DF801408E
:104BE0000122114869468DF8024003940494FEF7AF
:104BF0009FFD08B172B6FEE706208DF8140004216F
:104C00008DF815108DF816002422074805A98DF897
:104C100017200122FEF73CFD002801D072B6FEE706
:104C200006B010BD00400058443400241248002152
:104C3000072310B50F4C4FF08062C0E90041C0E976
:104C400002130161C0E90512016241628162C16221
:104C500041638163C163016441648164C16401652E
:104C600041658165FEF7FCFE002801D072B6FEE7C3
:104C700010BD0000003C00406834002410B588B02E
:104C80001748002415497722009464230194029464
:104C9000039404940594069480E81600C0E9033454
:104CA00044618461FFF748F908B172B6FEE74FF43A
:104CB000805000900A486946FFF7D4F908B172B6EF
:104CC000FEE7074804A9049405940694FFF7E2F868
:104CD000002801D072B6FEE708B010BD0000014008
:104CE000F03400241748002110B5154C0C224FF465
:104CF000E1330460C0E90131C160C0E9041281619F
:104D0000C161016241628162FFF73AFD08B172B68A
:104D1000FEE70C480021FFF746FB08B172B6FEE73C
:104D200008480021FFF719FB08B172B6FEE70548F5
:104D3000FFF7F1FA002801D072B6FEE710BD0000BF
:104D4000004C00403C350024FEE7FEE72DE9F0472B
:104D5000454D044689464FF0000A2868C043800745
:104D60000AD0414E283E306820F080603060FCF769
:104D7000EBFF0746B04608E00120BDE8F08700BF22
:104D8000FCF7E2FFC01B022867D8D8F8000000013A
:104D9000F6D4206829684FF4FE0721F47C313E02E6
:104DA00041EA00302860207AA389B4F804C04002A8
:104DB0002D4D2D495B1E227CACF1010C1035091DD7
:104DC000A0F5007080B2521ECCF3080C07EA034332
:104DD00040EA0C00184306EA0262104328600868A3
:104DE000626920F0C000104308600A68A06922F0E0
:104DF000200202430A60281D0A6822F010020A609D
:104E000002684FF6F873E4699A4342EAC40202600A
:104E10000868B9F1000F40F010020A6011D008686C
:104E2000B9F1010F11D040F400100860D8F800006B
:104E3000444640F08060C8F80000FCF785FF054656
:104E40000DE0086840F40020EFE740F48010ECE744
:104E5000FCF77AFF401B022801D903208DE7206868
:104E60000001F5D5504688E7284402582DE9F0475F
:104E7000454D044689464FF0000A2868C043800724
:104E80000AD0414E283E306820F080503060FCF758
:104E90005BFF0746B04608E00120BDE8F08700BF91
:104EA000FCF752FFC01B022867D8D8F8000080002A
:104EB000F6D4208829684FF4FE0721F07C713E0269
:104EC00041EA00502860207AA389B4F804C0400267
:104ED0002D4D2D495B1E227CACF1010C1835091DAE
:104EE000A0F5007080B2521ECCF3080C07EA034311
:104EF00040EA0C00184306EA026210432860086882
:104F0000626920F44060104308600A68A06922F4D6
:104F1000007202430A60281D0A6822F480720A6047
:104F200002684FF6F873E4699A4342EAC4020260E9
:104F30000868B9F1000F40F480720A6011D0086867
:104F4000B9F1010F11D040F080700860D8F800006E
:104F5000444640F08050C8F80000FCF7F5FE0546D6
:104F60000DE0086840F48000EFE740F40000ECE753
:104F7000FCF7EAFE401B022801D903208DE72068D8
:104F80008000F5D5504688E72844025801460020A5
:104F900002E00A39401CC9B20A29FAD2000741EAE4
:104FA000106070472DE9F041044600680025C16893
:104FB000490617D4691EC160FCF7C6FE03270646E2
:104FC0004FF47A7808E000BFFCF7BEFE801B404536
:104FD00002D9032584F821702068C068400601D4F6
:104FE000032DF1D12846BDE8F08100002DE9F04104
:104FF000124C032706460025E06820F04000E060E0
:10500000A068800607D43046FEF7FAFB90B103256E
:1050100086F821700EE0A06820F02000A0603046E5
:10502000FEF7EEFB10B1032586F82170A06840F072
:105030002000A0602846BDE8F08100000040005834
:105040000148FEF7FBBB00006834002410B502687D
:1050500040F26F335169946944F008049461026826
:10506000946944F0100494610268146824F0010407
:105070001460026814699C4314610268936823F405
:105080004043936090F88120042A0CD08A060AD508
:10509000D0F8842042F08002C0F88420026893692E
:1050A00043F02003936190F88120032A0CD04A0634
:1050B0000AD5D0F8842042F00402C0F884200268A7
:1050C000936943F0400393618A050AD5D0F88420A0
:1050D00042F00102C0F884200268936943F400732F
:1050E0009361C9050AD5D0F8841041F00801C0F8D1
:1050F000841001688A6942F480728A610021A0F8F4
:105100006210A0F86A1010BD10B5806B002101225A
:10511000A0F86A10A0F8621080F88120FEF78CFBDE
:1051200010BD0168426E098E1180416E891C416676
:10513000B0F86A10491EA0F86A10B0F86A10002989
:1051400004D10068016921F0010101617047016823
:10515000426E096B1160416E091D4166B0F86A101C
:10516000491EA0F86A10B0F86A10002904D100683E
:10517000016921F00101016170470168426E91F8F7
:1051800030101170416E491C4166B0F86A10491E1A
:10519000A0F86A10B0F86A10002904D1006801690B
:1051A00021F0010101617047C26D016812880A8413
:1051B000C16D891CC165B0F86210491EA0F862106B
:1051C000B0F86210002904D10068016921F00201E1
:1051D00001617047C16D026809681162C16D091DE6
:1051E000C165B0F86210491EA0F86210B0F86210F4
:1051F000002904D10068016921F0020101617047B2
:10520000C16D0268097882F82010C16D491CC16522
:10521000B0F86210491EA0F86210B0F862100029C0
:1052200004D10068016921F00201016170474FF06B
:10523000E02010B5006902F07BF9012803D0BDE839
:10524000104001F02FBE10BDF0B59DB04C21684656
:10525000FBF76DFA202113A8FBF769FA0220FCF78F
:1052600047FE3449002434480A6822F001020A60EB
:105270000A68026842F440420260026802F4404256
:105280001B9202689204FCD52C4A136843F0020377
:105290001360126802F002021B92026842F440425C
:1052A000026002680A6842F001020A60096801F0BF
:1052B00001011B9101688904FCD5FCF743FEFCF752
:1052C0003DFD1E49843901220B6840250220082635
:1052D00023F018070F600623009304210292039223
:1052E0003C2304950C220B91CDE90904CDE90C3047
:1052F0000FAB0E9683E8150068461294FDF794FEF6
:1053000008B172B6FEE74FF480621A953F20032180
:10531000CDE9185213AACDE9166582E813000421DD
:1053200013A8FDF743FC002801D072B6FEE71DB0BC
:10533000F0BD00002C04005818480258F4440258EC
:105340002C48F0B52C4A016841F4700101601068E6
:1053500000F00F00072804D2106820F00F00C01DD5
:10536000106026490020254C10340B68244D43F072
:1053700001030B6020600B682B400B60136803F087
:105380000F03072B04D9136823F00F03DB1D1360F1
:105390001A4C1C4A18341C4B261D371D2060174C14
:1053A0001A4D28343060261D3860371D23603B1DA0
:1053B00035601C1D3A60251D2E1D1860331D2260AE
:1053C0002860326018600A680C4B114C22F480226D
:1053D00060330A60186020686FF30F00B0F1005F5F
:1053E00003D20C490120C1F8080143F2D2000A4956
:1053F0000860F0BD88ED00E0002000520044025833
:105400007FEDF6EA80020101000202020000FF01C6
:105410000010005C00800051004000520148FEF77F
:10542000A0BE0000F03400240148FEF79ABE000040
:105430001C3600242DE9F047274B4FF0804A274DBA
:1054400002689842264E274F274C09D0504507D076
:10545000A84205D0B04203D0B84201D0A04205D145
:10546000D1F804C022F070024CEA0202DFF87CC0DE
:10547000DFF87C809842DFF87C900FD050450DD04B
:10548000A8420BD0B04209D0B84207D0A04205D004
:10549000604503D0404501D0484503D1CD6822F492
:1054A00040722A434D6922F080022A4302609842EA
:1054B0008A68C2620A68826207D0A04205D060454D
:1054C00003D0404501D0484501D10969016301215C
:1054D0004161BDE8F0870000000001400004004089
:1054E00000080040000C0040000401400040014062
:1054F000004401400048014042EA032283680A4315
:1055000023F47F410A43826070470000034B8268A6
:105510001A400A4342F00701816070478FFFCFFFB6
:1055200010B5036A046A23F00A0324F0010404623C
:1055300084690B4324F0F00141EA021181610362A6
:1055400010BD10B5036A23F0100303628369046A77
:1055500023F4704324F0A00443EA0232826144EA57
:105560000111016210BD00000148FEF745BF0000B7
:105570003C35002430B5416EB9B101680D4B03F1E3
:1055800008048A688968C2F34262490F5D5C615C05
:105590002D01B5FBF1F1A0F86A10995CA25C09013C
:1055A000B1FBF2F1A0F8681030BD0121A0F86A103B
:1055B000F8E70000DC7A000890F82810C90706D048
:1055C0000168C36A4A6822F400321A434A6090F8BC
:1055D0002810890706D50168036B4A6822F48032D7
:1055E0001A434A6090F82810490706D50168436BB2
:1055F0004A6822F480221A434A6090F8281009076A
:1056000006D50168836B4A6822F400421A434A6057
:1056100090F82810C90606D50168C36B8A6822F481
:1056200080521A438A6090F82810890606D50168CE
:10563000036C8A6822F400521A438A6090F828109A
:10564000490611D50168436C4A6822F480121A4356
:105650004A60416CB1F5801F06D10168836C4A68CD
:1056600022F4C0021A434A6090F82810090606D5B1
:105670000168C26C486820F40020104348607047FD
:105680002DE9F84300250446C0F89050FCF75CFB78
:105690008046206820266FF07E470068000713D5FB
:1056A0000022434631042046009700F049FA58B1E1
:1056B000216851E8000F20F0800041E80002002A34
:1056C000F6D1C4F8886021E020680068400722D540
:1056D000002243464FF480012046009700F030FA44
:1056E000C8B1206850E8001F21F4907140E8001212
:1056F000002AF6D12068083050E8001F21F001018F
:1057000040E80012002AF5D1C4F88C60032084F828
:105710008450BDE8F883C4F88860C4F88C60E566FE
:105720002567002084F88450F3E710B5806B0021D2
:10573000A0F85E10A0F85610FEF75DFE10BD000048
:1057400010B5026852E8001F21F4907142E800137E
:10575000002BF6D10E4B0268083252E8001F1940A8
:1057600042E80014002CF6D1C16E012908D102686C
:1057700052E8001F21F0100142E80013002BF6D17F
:1057800000212022C0F88C20C166416710BD0000B6
:10579000FEFFFFEF2DE9F04304468068D84E87B046
:1057A000D84B2168D4E90427D4F81CC010430A68F8
:1057B000002547EA0C073843324002430A6020685C
:1057C000E268416821F44051114341602268A169B7
:1057D0009A4201D0206A01439768DFF82CC3CB4E70
:1057E000CB4807EA0C070F4397602168676ACA6ACB
:1057F00022F00F023A43CA622268B2420ED1006818
:1058000000F03800182873D047DCB8B3082879D0E6
:1058100010286FD178E028287ED17BE0BD498A42EC
:1058200009D1006800F00700062875D2DFE800F013
:10583000546A6C6E7072B8498A4209D1006800F0EF
:105840000700062868D2DFE800F0475D5F61636506
:10585000B2498A4209D1006800F0070006285BD2ED
:10586000DFE800F03A5052545658AD498A420BD105
:10587000006800F0070006284ED200E010E0DFE8E4
:1058800000F02B4143454749A6498A420AD10068A6
:1058900000F03800182839D0B7DD2028BBD13CE013
:1058A00001203AE0A0498A4209D1006800F00700CF
:1058B000062831D2DFE800F01026282A2C2E9B493A
:1058C0008A420BD1006800F00700062824D2DFE8E6
:1058D00000F003191B1D1F2100201EE09A421BD15E
:1058E0008B48001D006800F00700062814D202E073
:1058F0000CE007E010E0DFE800F0030507090B0DFE
:1059000002200AE0042008E0082006E0102004E05D
:10591000202002E0402000E080208549DFF814824A
:105920009A42854A4FF400434FEA21174FF0000690
:105930004ED110281AD006DC022809D004280BD03A
:1059400008287CD10DE020283ED0402877D13DE0CA
:10595000FCF700FB014610E06846FCF70DFB0199DF
:105960000BE003A8FCF7AAFB049906E01068800688
:1059700005D51068C0F3C100C140002970D0606A2D
:10598000676838F8102007EB4703B1FBF2F0834259
:1059900055D8B0EB073F52D8002308461946FAF70E
:1059A0006FFD02467808130E120243EA0121101817
:1059B0003A4671410023FAF763FD604AA0F5407151
:1059C00091423CD821688FE03946D8E71946D6E79E
:1059D000D4F81CC04FF6EF799C4546D1082819D061
:1059E00005DC58B101280CD0042875D10DE0102831
:1059F00015D0202835D040286ED134E0FDF754FA78
:105A000001E0FDF763FA014610E06846FCF7B4FADE
:105A100001990BE003A8FCF751FB049906E010681C
:105A2000800604D51068C0F3C100C140C1B1636AEB
:105A3000606838F81330B1FBF3F1490000E04BE047
:105A400001EB5001B1FBF0F0A0F11001494543D842
:105A50004FF6F0732168C0F342021840104343E050
:105A600043E03946E3E71946E1E7082819D005DCA9
:105A700058B101280CD004282ED10DE0102815D0E3
:105A800020282BD0402827D12AE0FDF70DFA01E08D
:105A9000FDF71CFA014610E06846FCF76DFA019923
:105AA0000BE003A8FCF70AFB049906E010688006E7
:105AB00004D51068C0F3C100C140B1B1636A606829
:105AC00038F81330B1FBF3F101EB5001B1FBF0F00A
:105AD000A0F11001494505D9012506E03946EDE759
