:020000040800F2
:10000000D84D0124410400088F54000837510008DE
:100010008D540008F5080008316400080000000055
:100020000000000000000000000000008103000844
:100030007D09000800000000DD0300088759000862
:100040005B0400085B0400085B0400085B04000814
:100050005B0400085B0400085B0400087F090008DB
:100060005B0400085B0400085B0400085B040008F4
:100070005B0400085B0400085B0400085B040008E4
:100080005B0400085B0400085B040008F109000839
:100090005B040008FD0900085B0400085B0400081D
:1000A0005B040008755B00085B0400085B04000843
:1000B0005B0400085B0400085B0400085B040008A4
:1000C0005B0400085B0400085B0400085B04000894
:1000D0005B0400085B0400085B0400085B04000884
:1000E0005B0400085B040008000000005B040008DB
:1000F000815B00085B0400085B0400085B040008E7
:100100005B0400085B0400085B04000889570008D2
:10011000BD5C00085B0400085B0400085B04000889
:100120005B0400085B0400085B0400085B04000833
:100130005B0400085B0400085B0400085B04000823
:1001400000000000000000000000000000000000AF
:100150005B0400085B0400085B0400085B04000803
:100160005B0400085B0400085B0400085B040008F3
:100170005B0400085B0400085B040008000000004A
:100180005B0400085B0400085B0400085B040008D3
:100190005B0400085B0400085B0400085B040008C3
:1001A0005B0400085B0400085B0400085B040008B3
:1001B0005B0400085B0400085B0400085B040008A3
:1001C0005B0400085B0400085B0400085B04000893
:1001D0005B0400085B0400085B0400085B04000883
:1001E0005B0400085B0400085B0400085B04000873
:1001F0005B0400085B0400085B0400085B04000863
:100200005B0400085B0400085B0400085B04000852
:100210005B0400085B0400085B0400085B04000842
:100220005B0400085B0400085B0400080000000099
:100230005B0400085B040008000000005B04000889
:100240005B0400085B0400085B0400085B04000812
:100250005B0400085B0400085B0400085B04000802
:100260005B0400085B0400085B0400085B040008F2
:100270005B0400085B0400085B0400080000000049
:100280005B0400085B0400085B0400080000000039
:10029000000000005B04000800F002F800F060F8C5
:1002A0000AA090E8000C82448344AAF10107DA45D1
:1002B00001D100F055F8AFF2090EBAE80F0013F0C3
:1002C000010F18BFFB1A43F0010318479480000088
:1002D000B480000010F8013B0A4413F0030408BF87
:1002E00010F8014B1D1108BF10F8015B641E05D00A
:1002F00010F8016B641E01F8016BF9D1002D15D0C7
:1003000010F8014B03F00C030C2BA1EB04040ABF03
:1003100010F8013BA4EB8314A4EB032405F10103C3
:1003200014F8016B5B1E01F8016BF9D5914238BFDF
:1003300010F8013BD1D3704700230024002500268C
:10034000103A28BF78C1FBD8520728BF30C148BF38
:100350000B6070471FB507F063FF1FBD10B510BDE0
:1003600000F00FFA1146FFF7F5FF06F013F900F061
:100370002DFA03B4FFF7F2FF03BC00F035FA0000DA
:100380002C4B19680868B0E8F04F80F30988BFF378
:100390006F8F4FF0000080F311887047000000005D
:1003A00008480068006880F308884FF0000080F378
:1003B000148862B661B6BFF34F8FBFF36F8F00DF53
:1003C00000BF00BF08ED00E0DFF80C00016841F459
:1003D00070010160704700BF88ED00E0EFF3098015
:1003E000BFF36F8F134B1A681EF0100F08BF20ED7C
:1003F000108A20E9F04F106009B44FF0500080F3EC
:100400001188BFF34F8FBFF36F8F07F083F84FF062
:10041000000080F3118809BC19680868B0E8F04F43
:100420001EF0100F08BFB0EC108A80F30988BFF3EC
:100430006F8F70476C320024EFF305807047000027
:100440000948804709480047FEE7FEE7FEE7FEE768
:10045000FEE7FEE7FEE7FEE7FEE7FEE704480549A4
:10046000054A064B70470000995A00089902000897
:10047000D8470124D84D0124D8490124D849012462
:1004800053EA020C00F069802DE9F04B4FF00006B2
:10049000002B1FBFB3FA83F503FA05F424FA05F61F
:1004A0005E4012BF1643B2FA82F502FA05F4C5F1B6
:1004B00020051EBF22FA05FC44EA0C04203556EA4A
:1004C000044C4FEA144418BF641C4FF000084FF06E
:1004D0000009904271EB030C39D3002919BFB1FA1E
:1004E00081F701FA07F6B0FA80F700FA07F6C7F1CC
:1004F00020071EBF20FA07FC46EA0C062037B6FB91
:10050000F4FCA7EB0507103F07F01F0BCBF120060B
:100510000CFA0BFB2CFA06F644BFB3460026202F3C
:10052000A4BF5E464FF0000B5BEA060C08BF4FF01D
:10053000010B19EB0B09ABFB027C48EB0608C01B57
:1005400006FB02CC0BFB03CC71EB0C01C1E70B46A5
:10055000024641464846BDE8F08B13B54FF0000017
:100560004FF00001AFF30080BDE81C407047B2F1CE
:1005700020030AD5C2F1200320FA02F001FA03F3A6
:1005800021FA02F140EA0300704721FA03F04FF02C
:100590000001704740EA010310B59B070FD1042A00
:1005A0000DD310C808C9121F9C42F8D020BA19BA3E
:1005B000884201D9012010BD4FF0FF3010BD1AB1A3
:1005C000D30703D0521C07E0002010BD10F8013BF8
:1005D00011F8014B1B1B07D110F8013B11F8014B1F
:1005E0001B1B01D1921EF1D1184610BD032A40F207
:1005F000308010F0030C00F0158011F8013BBCF1C5
:10060000020F624498BF11F801CB00F8013B38BFDC
:1006100011F8013BA2F1040298BF00F801CB38BFEA
:1006200000F8013B11F0030300F02580083AC0F008
:10063000088051F8043B083A51F804CBA0E80810B0
:10064000F5E7121D5CBF51F8043B40F8043BAFF3E3
:100650000080D20724BF11F8013B11F801CB48BF3D
:1006600011F8012B24BF00F8013B00F801CB48BF73
:1006700000F8012B704710B5203AC0F00B80B1E8AC
:100680001850203AA0E81850B1E81850A0E81850C7
:10069000BFF4F5AF5FEA027C24BFB1E81850A0E8D0
:1006A000185044BF18C918C0BDE810405FEA827CEA
:1006B00024BF51F8043B40F8043B08BF7047D20701
:1006C00028BF31F8023B48BF11F8012B28BF20F8A2
:1006D000023B48BF00F8012B704702F0FF0343EADA
:1006E000032242EA024200F002B84FF0000204295D
:1006F000C0F0128010F0030C00F01B80CCF1040C51
:10070000BCF1020F18BF00F8012BA8BF20F8022B84
:10071000A1EB0C0100F00DB85FEAC17C24BF00F82A
:10072000012B00F8012B48BF00F8012B70474FF058
:10073000000200B5134694469646203922BFA0E831
:100740000C50A0E80C50B1F12001BFF4F7AF09073D
:1007500028BFA0E80C5048BF0CC05DF804EB89002E
:1007600028BF40F8042B08BF704748BF20F8022B71
:1007700011F0804F18BF00F8012B70477047704789
:100780007047754600F02CF8AE46050069465346A2
:1007900020F00700854618B020B5FFF75FFEBDE8E2
:1007A00020404FF000064FF000074FF000084FF0D8
:1007B000000B21F00701AC46ACE8C009ACE8C00969
:1007C000ACE8C009ACE8C0098D46704710B50446D6
:1007D000AFF300802046BDE81040FFF7CABD00001F
:1007E000004870477447012401491820ABBEFEE75A
:1007F00026000200704700002DED028B4FF0FF37FE
:10080000204E214D0020394606F01CFCF06D40F0D2
:100810000100F06508E01D4A04231D491D4803F04E
:100820009FFD192000F0DEFC95ED000BB5EEC00B2E
:10083000F1EE10FAEFD301221748D10301F064FC66
:10084000164900200860184C9FED158B08E00F4AF0
:1008500004230F490F4803F083FD192000F0C2FC68
:1008600095ED000BB4EEC80BF1EE10FA02D2207831
:100870000028ECD000F01CF80C48006807F0C6FA1D
:10088000C0E7000000A00040380000240900002458
:100890000D0000248C340024000402582C00002495
:1008A0000000000000C07240020000242800002464
:1008B00008490020087008490870084908600A497A
:1008C0009FED070B81ED000B08490860084880ED9B
:1008D000000B7047020000240500002418000024CB
:1008E00000000000002059C038000024140000243B
:1008F00040000024FEE700004FF0FF370A4D0B4E8A
:100900003C0C3946002006F09DFBE86D40F00100EC
:10091000E865002000BF401C80B2A042FAD33068D6
:1009200007F074FAEDE7000000A000402400002466
:100930002DE9F0476FF0FF084FF0FF39FF2520F059
:10094000FF04EE07972728222046521E294692468A
:10095000FFF70DFEC00701D074407D407F084FEACD
:10096000360604EA080005EA0901084303D01FFA25
:100970008AF2002AE8D1E0B2BDE8F0877047022091
:1009800001F0A4BA72B6FEE738B500241548234634
:1009900022462146009400F07AFC08B1FFF7F2FFEE
:1009A000104801F054FA08B1FFF7ECFF0D4800229F
:1009B000012100F029FC08B1FFF7E4FF0A4840F2EA
:1009C00055510160446084604FF40021C1600461AE
:1009D00044618461C46104620448C16D81F0010115
:1009E000C16538BDC8330024F435002400A00040A0
:1009F000014800F053BD0000C8330024014800F056
:100A00004DBD0000C833002430B5426B036853F875
:100A1000844F4FF6FC718C4344EA82041C600368E7
:100A200053F8844F058F24F47F0444EA05441C6086
:100A3000836B1A44036853F8884F8C4344EA82045A
:100A40001C60036853F8884F858F24F4FE0444EA41
:100A500005441C60C36B02EB4302036853F8A04FCC
:100A60008C4344EA82041C60036853F8A04FB0F83A
:100A7000405024F4FE0444EA05441C60D0E91034DC
:100A800003FB0422036853F8B04F8C4344EA82040A
:100A90001C60036853F8B04FB0F8485024F4FE04CB
:100AA00044EA05441C60D0E9123403FB04220368C5
:100AB00053F8AC4F8C4344EA82041C60D0E91434F0
:100AC00003FB0422036853F8F04F8C4344EA82048A
:100AD0001C60036853F8F04FB0F8585024F47C14AD
:100AE00044EA05441C60836D02EB4303026852F83C
:100AF000C04F8C4344EA83011160016851F8C02F54
:100B0000B0F85C3022F47C1242EA03420A600168C9
:100B100051F8C02F90F8603022F07C5242EA036214
:100B20000A60416B224A02EB8101C166826B01EBD4
:100B300082020267C36B02EBC3024267D0E9103442
:100B4000634302EB83028267D0E91234634302EB12
:100B50008302C267D0E91434634302EB8302C0F816
:100B60008020836D02EBC302C0F88420C46D836EC5
:100B70005C4302EB8402C0F88820046E5C4302EB05
:100B80008402C0F890200B4B9A4208D998304168F3
:100B900041F02001416003210170012030BD00229D
:100BA00000E004C1D0F890308B42FAD8002030BD6C
:100BB00000AC0040FCD300402DE9F84F044601F0A2
:100BC000B1FA00905CB194F83500022809D0802079
:100BD0006065002084F834000120BDE8F88F012012
:100BE000FBE7D14ED04FD0491836DFF83C83303781
:100BF000DFF83493DFF830A308F14808DFF828B3B2
:100C000009F1600920680AF1780A0BF1900B88421B
:100C10002ED0B0422CD0B8422AD0404528D04845EA
:100C200026D0504524D0584522D0BF4AA832904201
:100C30001ED0BE4A90421BD0BC4A1832904217D0F8
:100C4000BA4A3032904213D0B84A483290420FD05C
:100C5000B64A603290420BD0B44A7832904207D004
:100C6000B24A9032904203D0B04AA83290420AD1A0
:100C7000026822F01E0202602068426922F08002AF
:100C80004261256804E0026822F00E0202602568D5
:100C9000206888424DD0B0424BD0B84249D0404540
:100CA00047D0484545D0504543D0584541D09E4A4D
:100CB000A83290423DD09D4A90423AD09B4A183289
:100CC000904236D0994A3032904232D0974A4832D8
:100CD00090422ED0954A603290422AD0934A783280
:100CE000904226D0914A9032904222D08F4AA83228
:100CF00090421ED08E4A90421BD08D4A14329042B0
:100D000017D08B4A2832904213D0894A3C32904205
:100D10000FD0874A503290420BD0854A64329042BD
:100D200007D0834A7832904203D0814A8C32904275
:100D300004D1206E026822F4807202607A49206831
:100D400088422ED0B0422CD0B8422AD0404528D07C
:100D5000484526D0504524D0584522D07249A83164
:100D600088421ED0714988421BD070491831884290
:100D700017D06E493031884213D06C4948318842CF
:100D80000FD06A49603188420BD068497831884277
:100D900007D066499031884203D06449A83188421F
:100DA00004D1016821F00101016013E0016821F024
:100DB000010101600EE001F0B5F90099401A052823
:100DC00008D9202034342062032060700020207075
:100DD000012002E72868C007EDD1534A01212068AD
:100DE00090422ED0B0422CD0B8422AD0404528D0D4
:100DF000484526D0504524D0584522D04A4BA833E8
:100E000098421ED0494B98421BD0484B1833984209
:100E100017D0464B3033984213D0444B4833984256
:100E20000FD0424B603398420BD0404B78339842FE
:100E300007D03E4B9033984203D03C4BA8339842A6
:100E400008D1A06D94F85C3003F01F053F23AB4040
:100E5000836007E0A06D94F85C3003F01F0301FA93
:100E600003F34360206890424DD0B0424BD0B8426B
:100E700049D0404547D0484545D0504543D05845D6
:100E800041D0294AA83290423DD0284A90423AD0D7
:100E9000264A1832904236D0244A3032904232D01C
:100EA000224A483290422ED0204A603290422AD0C4
:100EB0001E4A7832904226D01C4A9032904222D06C
:100EC0001A4AA83290421ED0194A90421BD0184AA2
:100ED0001432904217D0164A2832904213D0144A46
:100EE0003C3290420FD0124A503290420BD0104AFE
:100EF0006432904207D00E4A7832904203D00C4AB6
:100F00008C3290420BD1D4E919205060E06E30B1A0
:100F1000026822F480720260D4E91C2050603434EC
:100F200061700020207058E610000240100402405A
:100F3000085402582DE9F05F002808D090F83510C9
:100F4000022906D0802141650120BDE8F09F0120E3
:100F5000FBE7A14AA04BA04C18329F4D30339E4E68
:100F60004834DFF874B26035DFF870C27836DFF8E5
:100F70006C82DFF868920CF1300CDFF860A208F1A7
:100F80006008016809F17809944F0AF1900A5945FF
:100F900031D091422FD099422DD0A1422BD0A942DD
:100FA00029D0B14227D0DFF830E20EF1900E714522
:100FB00021D0DFF824E20EF1A80E71451BD0DFF836
:100FC0001CE2AEF1180E714515D0B94213D0DFF80E
:100FD0000CE20EF1180E71450DD061450BD0DFF813
:100FE000FCE10EF1480E714505D0414503D049455D
:100FF00001D0514537D14FF0040E80F835E0594506
:1010000027D0914225D0994223D0A14221D0A94294
:101010001FD0B1421DD070489030814219D06E4827
:10102000A830814215D06D481838814211D0B9429C
:101030000FD06A48183081420BD0614509D067480B
:101040004830814205D0414503D0494501D0514542
:1010500004D1086820F001000860BAE0086820F0B8
:1010600001000860B5E0D1F800E02EF00E0EC1F8E6
:1010700000E00168DE46594531D091422FD09942B7
:101080002DD0A1422BD0A94229D0B14227D0DFF8E0
:1010900048B10BF1900B594521D0DFF83CB10BF171
:1010A000A80B59451BD0DFF834B1ABF1180B5945EB
:1010B00015D0B94213D0DFF824B10BF1180B594504
:1010C0000DD061450BD0DFF814B10BF1480B594539
:1010D00005D0414503D0494501D0514506D1D1F84D
:1010E00000B02BF0010BC1F800B005E0D1F800B062
:1010F0002BF0010BC1F800B001684FF0010B7145F6
:1011000046D0914244D0994242D0A14240D0A94217
:101110003ED0B1423CD0304A9032914238D02E4A33
:10112000A832914234D02D4A183A914230D0B94277
:101130002ED02A4A183291422AD0614528D0274A17
:101140004832914224D0414522D0494520D05145D2
:101150001ED0234A91421BD0214A1432914217D00B
:101160001F4A2832914213D01D4A3C3291420FD07F
:101170001B4A503291420BD0194A6432914207D037
:10118000174A7832914203D0154A8C32914218D1D5
:10119000016E0A6822F480720A60816D90F85C200A
:1011A00002F01F020BFA02F24A60D0E919215160E5
:1011B000C16E31B10A6822F480720A60D0E91C2144
:1011C000516080F835B0002180F83410016D01B114
:1011D00088470020B9E600001000024028040240C1
:1011E0000854025870B5044600F09CFF0546601C88
:1011F00002D004480078044400F094FF401BA04251
:10120000FAD370BD5832002410B590F89830012BF5
:1012100008D0022B06D050F89C1F41F0020101605B
:10122000012010BD03689C6D0C4204D1DC6D44F0BC
:101230000104DC6505E09C6D31EA04041CD0032444
:10124000DC658B0504D5036853F8E04F14431C603C
:101250004B0504D5036853F8E44F14431C60006841
:10126000426D084B0B401A4342650748026842EA48
:1012700091710160002010BDDC6D44F00204DC655A
:10128000DFE70000FFFFCF3F14A80040704730B5F4
:10129000039C90F89850012D06D050F89C1F41F007
:1012A00004010160012030BD0068090141EA8201AA
:1012B00041EA43012143C0F88010002030BD90F87E
:1012C0009820012A06D050F89C1F41F004010160CB
:1012D000012070470068026A22F470220A43026209
:1012E0000020704770477047F0B5002490F8985080
:1012F000022D06D050F89C1F41F00801016001202A
:10130000F0BD40294FF000460BD0412936D0056D85
:101310008D4260D850F89C1F41F0200101600120EF
:10132000F0BD0568D5F8A07017F4FE0F18D0D5F8F9
:10133000A4707F061BD0D5F8A470FF0105D5D5F8A1
:10134000A070B6EBD77F00D10124D5F8A450C5F327
:1013500005252C44456C466F654306EB85063FE04A
:1013600050F89C1F41F0200101600120F0BD50F8B1
:101370009C1F41F4807101600120F0BD0568D5F823
:10138000B07017F4FE0F18D0D5F8B4707F061BD0DC
:10139000D5F8B470FF0105D5D5F8B070B6EBD77F9E
:1013A00000D10124D5F8B450C5F305252C44C56CF3
:1013B000866F654306EB850612E050F89C1F41F0EE
:1013C000200101600120F0BD50F89C1F41F48071A4
:1013D00001600120F0BD456DC66F4D4306EB8506EB
:1013E000356805F0804555602DB3356825F06045BA
:1013F0001560356805F000559560356805F00045C5
:101400001561B588ADB2D561756805F47025D560F4
:10141000756805F480155561756805F400159561CA
:101420007568C5F30665156275680836ED0F556277
:101430000025184F09E03568C5F38A451560D8E7DF
:1014400016F805C003F805C06D1CD2F80CC007EBF8
:101450001C4C9CF800C0AC45F2D8402909D0412969
:101460000BD0012220290CD200688A40C0F89820B5
:101470000DE00068C0F8A84009E00068C0F8B84076
:1014800005E0006801F01F018A40C0F89C200020A0
:10149000F0BD0000A0820008704700002DE9FE4F5B
:1014A0000446B64F38688007391D096800EA817024
:1014B00002902068016D01F47041D0F854A00AEA4E
:1014C000010A016D01F00F01D0F854B00BEA010BD5
:1014D000016D01F0F001426D0A400192016D01F0D1
:1014E0007151D0F8548008EA0108016D01F0607173
:1014F000426D0A400092416D056D4FF00009CE43E8
:10150000F10509D4E943C90506D4B9150165C7F841
:1015100000902046FFF7C0FF700510D4E843400557
:101520000DD42068D0F8DC20D0F8E41011404FF43E
:1015300080620265C7F80090204600F0A6FC029881
:1015400058B18F4902980840216808650298800FB9
:10155000386002992046FFF799FEBAF1000F0BD0D0
:10156000216887480AEA000008654FEA9A703860E7
:101570005146204600F08BFCBBF1000F0BD02168D8
:101580007F480BEA000008654FEA9B7038605946B7
:10159000204600F085FA019858B179490198084031
:1015A000216808650198800F38600199204600F095
:1015B0004DFC30050BD4E843000508D421684FF4F6
:1015C00000600865C7F80090204600F061FCB00597
:1015D00010D4E84380050DD42068D0F8D820D0F886
:1015E000E01011404FF400720265C7F800902046E9
:1015F00000F04CFC30030BD4E843000308D421680E
:101600004FF400200865C7F80090204600F046FA25
:10161000F0030BD4E843C00308D421684FF48030B2
:101620000865C7F80090204600F02EFC70030BD42C
:10163000E843400308D421684FF480200865C7F8C8
:101640000090204600F01FFCB0030ED4E843800356
:101650000BD421684FF400300865C7F80090D4F827
:101660009C0040F08000C4F89C00009858B14449A8
:1016700000980840216808650098800F386000993C
:101680002046FFF730FEB8F1000F0DD021683C482E
:1016900008EA000008654FEA98703860D4F89C00AA
:1016A00040EA0800C4F89C003649206888425BD1B3
:1016B00060688168890757D0016A01F00F02416AAA
:1016C0001140026A02F03002476A1740026A02F4CF
:1016D000C072D0F8248008EA0208026A02F4FC42D0
:1016E000456A1540026A02F4F022466A1640D0F8B4
:1016F0002490D0F820A019B10162204600F0C0FB70
:101700002FB1606807623946204600F0BBFB6FEAE4
:10171000090040060ED46FEA0A0040060AD4606849
:10172000C16B090CC26B02F03F02402303622046EA
:1017300000F0A7FBB8F1000F06D06068C0F8208069
:101740004146204600F09BFB35B160680562D4F845
:101750009C002843C4F89C0036B160680662D4F847
:101760009C003043C4F89C00D4F89C00002802D0B0
:101770002046FFF7B7FDBDE8FE8F000010A800402F
:10178000FFFFCF3F00A000402DE9F04393B0044697
:101790004C2295496846FEF76EFF6CB1934F206866
:1017A000B84202D100F5807060604FF4407994F83F
:1017B0009800002620B108E0012013B0BDE8F083B6
:1017C00084F89960204600F013F92068816921F0BF
:1017D0001001816100F0A6FC05464FF003080DE002
:1017E00000F0A0FC401B0A2808D954F89C0F40F0D8
:1017F0000100206004F8048C0120DEE72068806985
:101800000007EDD42068816941F00101816100F099
:1018100089FC05460DE000F085FC401B0A2808D92C
:1018200054F89C0F40F00100206004F8048C012063
:10183000C3E720688069C007EDD02068816941F066
:1018400002018161207C012839D02068816941F042
:1018500040018161607C012837D02068816921F4D2
:1018600080418161A07C012835D02068816941F4E4
:101870008051816120688169A26821F4407111431F
:1018800081612068816921F0A4018161206801697A
:1018900021F010010161E068012822D030B3022854
:1018A0002BD02068816941F0800181612068016945
:1018B00041F010010161E068032818D022E020689F
:1018C000816921F040018161C4E72068816941F4A8
:1018D00080418161C6E72068816921F4805181617E
:1018E000C8E72068816941F0040181610AE020684D
:1018F000816941F02001816104E02068816941F043
:1019000020018161207E401E4106E069401E41EABF
:101910000020216A491E0843A18A491E40EA01406D
:101920002168C861A06848450FD1E16AA06A491ED4
:10193000401E40EA0121206B401E41EA0011A08CAC
:10194000401E41EA00402168C860206E28B120682E
:1019500050F8C01F626E11430160D4E91701C842FC
:10196000694609D0206850F8C82FA36E22F00702FC
:1019700051F823301A430260206C48B1206850F8B7
:10198000BC2F636C22F0070251F823301A43026027
:10199000A06C50B1206850F8BC2FE36C22F07002AC
:1019A00051F8233042EA03120260206D50B12068E2
:1019B00050F8BC2F636D22F4E06251F8231042EA24
:1019C000012101602068B84204D16068816821F07B
:1019D0000301816044F8946FA66001202071943C5B
:1019E0002046FFF711F8E8E6B082000800A00040AA
:1019F00010B5B8B00446142132A8FEF798FEC021F5
:101A000002A8FEF794FE2249206888423DD10020BA
:101A10004FF40041CDE9021048031E9002A800F0E7
:101A20005DFE08B1FEF7AEFF1A48016841F480710F
:101A30000160006800F48070019016480C3801685D
:101A400041F002010160006800F0020001904FF4D3
:101A5000407032900220339000203490359009205D
:101A6000369032A90C4800F03DFA002205211320DF
:101A700000F0FCFB132000F0EBFB002205211520F9
:101A800000F0F4FB152000F0E3FB38B010BD0000BF
:101A900000A00040EC4402580004025870470000C7
:101AA0002DE9F04F8DB000240A940B94C90719D08A
:101AB000DE494FF0010AE04DDFF87483DFF874B3BC
:101AC00005F54B76496808F16C02DC4F05F1C80951
:101AD00001290C9209D002297AD0032977D0042950
:101AE000FCD000BF0DB0BDE8F08FD44A0021521DDC
:101AF000117051704021D24A0AABFFF7F5FB60B973
:101B0000F86A2860010E8DF82410010C8DF825105C
:101B1000010A8DF826108DF82700F469C9F80040F5
:101B20003768C9F80470F068060CC9F8086088F8CE
:101B300000A0C8F804A04FF0000988F80C9095EDBB
:101B4000000AB8EE400B88ED060BBB4914220C9836
:101B5000C831FEF790FD8DF80CA08DF80DA08DF822
:101B60000E90200E8DF80F00200C8DF81000200A2A
:101B70008DF811008DF81240380A8DF813008DF899
:101B800014708DF81560002003A90AAA04E00C184F
:101B9000135CA372401CC0B28642F8D8002009AA88
:101BA0000C18135CA374401CC0B20428F8D3A448DA
:101BB00016224FF47A73B83803A903F05FFADBF802
:101BC0005C0080F00100CBF85C008BE700E07DE07A
:101BD0009B4A40210AABFFF787FB30B9F96AF878D6
:101BE00045F82010401CF870FC62F8783228ECD1DF
:101BF0009248401D04706869286032218E4804F0C4
:101C00007BFC7863010E8DF82410010C8DF82510F3
:101C1000010A8DF826108DF82700F569C9F80050E3
:101C20003768C9F80470F1680E0CC9F8086088F8C4
:101C300000A04FF00209C8F8049088F80C4000EEAC
:101C4000100AB8EE400B88ED060B7B4914220C9865
:101C5000C831FEF710FD8DF80CA08DF80D908DF8B1
:101C60000E40280E8DF80F00280C8DF81000280A61
:101C70008DF811008DF81250380A8DF813008DF888
:101C800014708DF81560002003A90AAA04E00C184E
:101C9000135CA372401CC0B28642F8D8002009AA87
:101CA0000C18135CA374401CC0B20428F8D3644819
:101CB00016224FF47A73B83803A903F0DFF9DBF882
:101CC0005C0080F00100CBF85C000BE75C4A40212F
:101CD0000AABFFF709FB48B93068232806D1F96A37
:101CE000387945F82010401C3871FC6240F253618D
:101CF000306888420BD197ED0E0B9FED521BB4EE6E
:101D0000410BF1EE10FA02D19DF82F200892884283
:101D100004D1B87810B19DF82F0007903879322897
:101D2000D3D14648401D047068692860322142487A
:101D300004F0E2FB41494863010E8DF82410010CC8
:101D40008DF82510010A8DF826108DF82700F56909
:101D5000C9F800503768C9F80470F1680E0CC9F86A
:101D6000086088F800A04FF00209C8F8049088F8CD
:101D70000C4000EE100AB8EE400B88ED060B2E4921
:101D800014220C98C831FEF776FC8DF804A08DF86B
:101D900005908DF80640280E8DF80700280C8DF868
:101DA0000800280A8DF809008DF80A50380A8DF8C5
:101DB0000B008DF80C708DF80D6008988DF80E00F2
:101DC00007988DF80F001D48006B010E8DF811105B
:101DD000010C8DF81210010A8DF813108DF8140003
:101DE000002001AA0AA904E014180B5C6374401CCB
:101DF000C0B28642F8D80020B11809AB00F1110238
:101E00001C5C8C54401CC0B20428F7D30C4816222A
:101E10004FF47A73B83801A903F030F9DBF85C00AD
:101E200080F00100CBF85C005CE6000090380024F4
:101E30009036002400A00040EC3200240000002472
:101E40001836002400000000000049C0704790F8D8
:101E50009810012906D050F89C1F41F00401016040
:101E600001207047022180F8981001688A6922F0E9
:101E700001028A610021C0F89C1000207047704761
:101E8000704770477047704770477047704770479A
:101E90007047000070B5012801D0022810D1094D0B
:101EA00000224FF40041284600F02EF9064C012193
:101EB000A17001228903284600F026F9E06A206318
:101EC00070BD0000000402580000002410B54FF05F
:101ED000B041D1F88820024203D0C1F88800FFF752
:101EE000D9FF10BD2DE9F84F00227B4D03264FF09E
:101EF00001080F274FF0B04CE6E008FA02F31C404F
:101F00009A46002C7ED00B7903F00303012B01D0FD
:101F1000022B1BD1D0F80890530006FA03FB29EAE4
:101F20000B09D1F80CB00BFA03FB4BEA090BC0F814
:101F300008B0436823EA0A0391F80490C9F3001932
:101F400009FA02F949EA0309C0F804900B79DB4366
:101F50009B070ED0D0F80C90530006FA03FA29EA3A
:101F60000A09D1F808A00AFA03FA4AEA090AC0F8ED
:101F70000CA00B7903F00303022B14D1D30800EB60
:101F80008303D3F820A04FEA42794FEAD96907FAD0
:101F900009FB2AEA0B0AD1F810B00BFA09FB4BEA4D
:101FA0000A0BC3F820B0D0F80090530006FA03FAE9
:101FB00029EA0A0991F804A00AF0030A0AFA03FAC6
:101FC0004AEA090AC0F800A04B6813F4403F7AD0EF
:101FD000424BD3F8009049F00209C3F800901B6807
:101FE00003F00203009322F0030909F1B049D9F884
:101FF00008B493074FEA137A07FA0AF32BEA030BA4
:10200000374B00E05FE0984201D100232DE0354BD3
:10201000984201D1012328E0334B984201D1022399
:1020200023E0324B984201D103231EE0304B98420B
:1020300001D1042319E02F4B984201D1052314E06C
:102040002D4B984201D106230FE02C4B984201D131
:1020500007230AE02A4B984201D1082305E0294BC7
:10206000984201D1092300E00A2303FA0AF343EA64
:102070000B03C9F80834DCF80030A343D1F804900E
:102080005FEAC92900D52343CCF80030DCF80430DE
:10209000A343D1F804905FEA892900D52343CCF803
:1020A00004306B68A343D1F804905FEA893900D506
:1020B00023436B602B68A343D1F804905FEAC939CE
:1020C00000D523432B60521C0C6834FA02F37FF4D2
:1020D00014AFBDE8F88F000080000058F4440258A7
:1020E000000002580004025800080258000C025870
:1020F000001002580014025800180258001C025820
:102100000020025800240258002A01D08161704743
:10211000090481617047000001480068000C7047A5
:102120000010005C014880687047000058320024AD
:102130000248816802781144816070475832002457
:1021400010B5032000F0B2F801F07EF90F490A68DB
:10215000C2F303230E4AD35C03F01F03D84009687F
:1021600001F00F01515C0B4A01F01F0120FA01F14F
:102170001160094908600F2000F010F808B1012033
:1021800010BD00F053F8002010BD000018440258A4
:1021900024830008683200246432002410B58AB019
:1021A0000446102C2FD2002221462C2000F05EF88D
:1021B0002C2000F04DF8184804601848016841F0E0
:1021C00080010160006800F08000009001A902A871
:1021D00001F0C4F80798C0B101F012F940001049AD
:1021E000B0FBF1F1491E10480E4A026040F2E7329E
:1021F000C260416000210161816002F013FA38B1D0
:1022000001200AB010BD0120FBE701F0F9F8E6E774
:10221000054802F04DFAF4E75C320024E844025825
:1022200040420F00001C00404036002482B00748A6
:10223000016841F002010160006800F002000190B5
:1022400000220F21901E02B000F010B8F444025892
:10225000002809DB012100F01F02914040098000A5
:1022600000F1E020C0F8001170470000F0B40D4606
:102270000D4B1B68C3F30223C3F10704042C00D9E0
:102280000424191D072901D2002300E0DB1E0126CA
:1022900006FA04F1491E294099409E40761E1640D8
:1022A0003143F0BC04F0C5B80CED00E000F00701CC
:1022B000054A10684FF6FF03184040EA0120034921
:1022C00008431060704700000CED00E00000FA05C4
:1022D00070B514490A68D243520708D5096801F05D
:1022E0000701814201D0012070BD002070BD0A6845
:1022F00022F0070202430A60FFF714FF0446094D6B
:102300004FF47A76083D06E0FFF70CFF001BB04261
:1023100001D9012070BD2868C0438004F4D4002096
:1023200070BD00000C4802580248016841F48071F9
:10233000016070470048025810B501F03FF80549A8
:102340000968054AC1F30211515C01F01F01C84040
:1023500010BD0000204402582483000810B56949CC
:102360000A6802F003020968C1F30531654B1B1DC1
:102370001B68C3F30013634C14342468C4F3CC0407
:1023800014FB03F300EE103AB8EE400A002971D0B6
:102390009FED5D1A5B4BF7EE000A1033F2B39FED31
:1023A0005B2A012A7FD0022A7CD001EE901A19689C
:1023B000F8EE611AC2EE212AC1F3080101EE901A6B
:1023C000F8EE611A40EE011A31EEA00A22EE800A00
:1023D0001968C1F3462101EE101AB8EE411A31EE28
:1023E000201AC0EE011ABCEEE11A80ED001A19683D
:1023F000C1F3064101EE101AB8EE411A31EE201A6F
:10240000C0EE011ABCEEE11A80ED011A1968C1F3A1
:10241000066101EE101AB8EE411A00E008E071EE14
:10242000200A80EE201ABCEEC10A80ED020A10BD1F
:10243000344A283A1468A4061ED51268C2F3C104AF
:10244000334AE24001EE902AF8EE612A01EE901A3A
:102450001968F8EE611A82EEA12AC1F3080101EEB3
:10246000901AF8EE611A40EE011A31EEA00A22EE3F
:10247000000AADE741E016E001EE901ADFED252AF3
:102480001968F8EE611A82EEA12AC1F3080101EE83
:10249000901AF8EE611A40EE011A31EEA00A22EE0F
:1024A000000A95E713E001EE901A1968F8EE611A38
:1024B000C2EE212AC1F3080101EE901AF8EE611A6A
:1024C00040EE011A31EEA00A22EE800A80E701EE0A
:1024D000901ADFED112A1968F8EE611A82EEA12A2E
:1024E000C1F3080101EE901AF8EE611A40EE011AEC
:1024F00031EEA00A22EE000A6AE700210160416085
:10250000816010BD28440258000000390024744A3C
:102510000090D0030024744C20BCBE4B10B5694918
:102520000A6802F003020968C1F30551654B1B1DDF
:102530001B68C3F30023634C1C342468C4F3CC042D
:1025400014FB03F300EE103AB8EE400A002971D0F4
:102550009FED5D1A5B4BF7EE000A1833F2B39FED67
:102560005B2A012A7FD0022A7CD001EE901A1968DA
:10257000F8EE611AC2EE212AC1F3080101EE901AA9
:10258000F8EE611A40EE011A31EEA00A22EE800A3E
:102590001968C1F3462101EE101AB8EE411A31EE66
:1025A000201AC0EE011ABCEEE11A80ED001A19687B
:1025B000C1F3064101EE101AB8EE411A31EE201AAD
:1025C000C0EE011ABCEEE11A80ED011A1968C1F3E0
:1025D000066101EE101AB8EE411A00E008E071EE53
:1025E000200A80EE201ABCEEC10A80ED020A10BD5E
:1025F000344A283A1468A4061ED51268C2F3C104EE
:10260000334AE24001EE902AF8EE612A01EE901A78
:102610001968F8EE611A82EEA12AC1F3080101EEF1
:10262000901AF8EE611A40EE011A31EEA00A22EE7D
:10263000000AADE741E016E001EE901ADFED252A31
:102640001968F8EE611A82EEA12AC1F3080101EEC1
:10265000901AF8EE611A40EE011A31EEA00A22EE4D
:10266000000A95E713E001EE901A1968F8EE611A76
:10267000C2EE212AC1F3080101EE901AF8EE611AA8
:1026800040EE011A31EEA00A22EE800A80E701EE48
:10269000901ADFED112A1968F8EE611A82EEA12A6C
:1026A000C1F3080101EE901AF8EE611A40EE011A2A
:1026B00031EEA00A22EE000A6AE7002101604160C3
:1026C000816010BD28440258000000390024744A7B
:1026D0000090D0030024744C20BCBE4B2DE9FC5F5D
:1026E000044600250026F94F2068DFF8E483C04344
:1026F000010104F10800019004F1280000900DD4BC
:10270000A06EB8B1B0F5801F19D0B0F5001F1CD075
:10271000B0F5401F00D00125EDB12E462088C04302
:10272000C00535D4A06D05282FD2DFE800F01D22AA
:10273000282F2F00386840F400303860ECE701980B
:10274000022102F0A5FE0546E6E70098022102F00C
:1027500031FF0546E0E7D8F80000A16E20F44010F4
:102760000843C8F80000D9E7386840F40030386002
:102770000CE00198002102F08BFE054606E000986F
:10278000002102F017FF054600E0012565B12E4645
:102790002088C043800518D4E06D802831D00CDC3F
:1027A00020B340280ED126E0D8F80000A16D20F01B
:1027B00007000843C8F80000EAE7C02803D0B0F5D6
:1027C000807F00D0012515B32E462088DFF80493C2
:1027D000C04340052DD4D4F8A800B0F5800F43D0F5
:1027E0001EDCA8B3B0F5001F20D137E0386840F4F4
:1027F00000303860E7E70198002102F049FE054605
:10280000E1E70098002102F0D5FE0546DBE7D8F8A5
:102810000000E16D20F4E0700843C8F80000D4E740
:10282000B0F5C00F03D0B0F5000F00D001250DB3F7
:102830002E462088C04300052FD4D4F8AC00B0F158
:10284000007F54D020DCE8B3B0F1807F22D148E093
:10285000FFE7386840F400303860E8E7019800216D
:1028600002F016FE0546E2E70098002102F0A2FE03
:102870000546DCE7D9F80000D4F8A81020F4600081
:102880000843C9F80000D4E7B0F1407F03D0B0F1AD
:10289000806F00D0012585B32E462068C04380019B
:1028A0000AD4E06C30B1102832D0202836D030283D
:1028B00000D001258DB32E462088C043C00446D4E5
:1028C000206E00E008E0B0F5005F5CD036DCA0B31D
:1028D000B0F5805F38D150E0386840F4003038609F
:1028E000D9E70198002102F0D3FD0546D3E700980F
:1028F000002102F05FFE0546CDE7FFE7D9F80000B2
:10290000D4F8AC1020F0E0600843C9F80000C4E738
:10291000386840F400303860CCE705E001980221C7
:1029200002F0B6FD0546C5E76948001F0168E26C84
:1029300021F0300111430160BEE719E0B0F5405FBE
:1029400003D0B0F5804F00D0012515B32E46208866
:10295000C04380042FD4606EB0F5403F29D021DC05
:1029600038B3B0F5803F38D0B0F5003F20D13AE021
:10297000386840F400303860E7E70198002102F041
:1029800087FD0546E1E70098002102F013FE0546A9
:10299000DBE7D8F80000216E20F4E0400843C8F8D7
:1029A0000000D4E7B0F5802F03D0B0F5A02F00D001
:1029B0000125F5B12E462088C04340042BD4D4F81D
:1029C000B000B0F1405F24D01CDC10B3B0F1805FE8
:1029D0004ED0B0F1005F1BD151E00198012102F00F
:1029E00057FD0546E5E70098012102F0E3FD0546A5
:1029F000DFE7D8F80000616E20F4E0200843C8F853
:102A00000000D8E7B0F1804F03D0B0F1A04F00D064
:102A100001259DB32E462088C04300040AD4206FB0
:102A200030B1B0F1805F3CD0B0F1005F3ED0012505
:102A3000ADB32E462068C043C0010AD4A06C30B1AB
:102A400001284DD0022850D0032800D001253DB3E5
:102A50002E462068DFF880B0C043400261D41F4892
:102A6000016841F480710160FFF75CFB824652E02F
:102A70000198012102F00CFD0546CAE705E0009827
:102A8000012102F097FD0546C3E7D9F80000D4F80C
:102A9000B01020F0E0400843C9F80000BBE70BE0AD
:102AA00029E0386840F400303860C1E7019801211E
:102AB00002F0EEFC0546BBE7D8F80000216F20F0DD
:102AC00040500843C8F80000B4E700002C44025806
:102AD00050440258584402581044025800480258C2
:102AE000386840F400303860B1E70198022102F004
:102AF000CFFC0546ABE7FE480168A26C21F003015C
:102B000011430160A5E7FFF70DFBA0EB0A00642865
:102B100001D9032503E0F7480068C005F3D53DB1AE
:102B20002E462078DFF8D0A3C043C00755D065E01B
:102B3000F1481C300068B4F8B41000F4407001F49F
:102B4000407188420DD0EC481C30016821F440717E
:102B5000026842F480320260026822F4803202602D
:102B60000160D4F8B400B0F5807F12D1FFF7DAFA33
:102B7000824609E0FFF7D6FAA0EB0A0141F288305D
:102B8000814201D9032504E0DB481C30006880073E
:102B9000F0D50DB12E46C4E7D4F8B400C0F301213E
:102BA00003290FD0DBF8000020F47C50CBF80000A4
:102BB000D1481C300168B4F8B420C2F30B021143B1
:102BC0000160AEE7DBF80010CC4A21F47C511040E4
:102BD00041EA1010CBF80000EAE7E06F18280BD0AC
:102BE00005DC48B1082815D0102804D118E02028A9
:102BF00002D0282800D00125C5B12E462078C04338
:102C000080072BD4A06F062825D2DFE800F0251816
:102C10001E2525250198012102F03AFC0546EBE727
:102C20000098012102F0C6FC0546E5E7DAF800004D
:102C3000E16F20F038000843CAF80000DEE7019891
:102C4000012102F025FC054606E00098012102F072
:102C5000B1FC054600E001256DB12E462078C04349
:102C6000400720D4D4F89400062819D2DFE800F0F9
:102C7000190C12191919DAF80000A16F20F00700D9
:102C80000843CAF80000E9E70198012102F000FCBE
:102C9000054606E00098012102F08CFC054600E0A4
:102CA000012595B12E462078C043800620D4D4F863
:102CB0009000B0F1405F19D011DCB8B1B0F1805F85
:102CC00028D0B0F1005F10D12AE0D9F80000D4F884
:102CD000941020F007000843C9F80000E3E7B0F1C2
:102CE000804F03D0B0F1A04F00D00125F5B12E46A2
:102CF0002078C04340062CD4D4F89C00B0F5406F37
:102D000025D01DDC18B3B0F5806F34D0B0F5006F5E
:102D10001CD136E00198002102F0BAFB0546E5E738
:102D20000098022102F046FC0546DFE7DAF80000D1
:102D3000D4F8901020F0E0400843CAF80000D7E72C
:102D4000B0F5805F03D0B0F5A05F00D00125F5B1EC
:102D50002E462078C04300062CD4D4F8A000B0F54D
:102D6000C04F25D01DDC18B3B0F5005F2CD0B0F5F6
:102D7000804F1CD12EE00198002102F089FB05460E
:102D8000E5E70098022102F015FC0546DFE7D9F8D7
:102D90000000D4F89C1020F4E0500843C9F800006B
:102DA000D7E7B0F5004F03D0B0F5204F00D0012594
:102DB000B5B12E462078C04300072AD4D4F8840049
:102DC000B0F5805F16D01BE00198002102F060FB97
:102DD0000546EDE70098022102F0ECFB0546E7E727
:102DE000D9F80000D4F8A01020F460400843C9F8D6
:102DF0000000DFE70098022102F0DCFB00B10126B1
:102E0000DAF80000D4F8841020F440500843CAF8DF
:102E100000002078C043C00613D4D4F89800B0F561
:102E2000807F05D10098022102F0C4FB00B1012689
:102E3000D9F80000D4F8981020F440700843C9F87D
:102E400000002068C04300030BD4D4F8A400E8B30A
:102E5000B0F5803F7DD0B0F5003F00D00125B5B37F
:102E60002E462068C04340030DD4D4F88800B0F546
:102E7000801F70D0B0F5001F6ED0B0F5401F00D09D
:102E80000125EDB32E462068C043C00307D4206D52
:102E9000B8B3B0F5803F7CD001259DB32E462068A5
:102EA000C043800005D40098022102F083FB00B1EA
:102EB00001262068C043800311D4D4F8800060B19B
:102EC000B0F5807F66D0B0F5007F01E070E07BE078
:102ED00003D0B0F5407F00D00125DDB32E46206839
:102EE000C043C00213D4D8F8000020F000400AE02C
:102EF0004C4402580048025854440258FFFCFF0F4B
:102F000077E080E08AE0616F0843C8F8000020683D
:102F1000C043C00008D4DBF80000D4F8B81020F497
:102F200080400843CBF800002068C043800207D4EB
:102F3000D8F80000E16E20F080700843C8F8000067
:102F40002068C043400011D4DBF8000020F40040AA
:102F500003E033E06FE041E045E0CBF80000DBF850
:102F60000000D4F8BC100843CBF800002068C04330
:102F700006D45A480168626D21F040511143016046
:102F80002068C04300020BD4DAF8000020F44000AF
:102F900001E03DE04AE0D4F88C100843CAF8000094
:102FA00020790025C04300F0010028434DD052E0B5
:102FB0000198002102F06CFA054650E700980221C2
:102FC00002F0F8FA05464AE7D9F80000D4F8A41050
:102FD00020F440300843C9F8000042E7386840F464
:102FE000003038604DE70098012102F0E3FA054611
:102FF00047E7DAF80000D4F8881020F440100843BE
:10300000CAF800003FE7386840F40030386044E711
:103010000198022102F03CFA05463EE72F4801687C
:10302000226D21F480311143016038E7386840F4A3
:103030000030386051E7DAF80000D4F8801020F44E
:1030400040700843CAF8000049E70198002102F0E7
:103050001FFA00B106462079C04300F00200284361
:1030600005D10198012102F013FA00B1064620793A
:10307000C04300F00400284305D10198022102F06A
:1030800007FA00B106462079C04300F00800284343
:1030900005D10098002102F08DFA00B10646207992
:1030A000C04300F01000284305D10098012102F030
:1030B00081FA00B106462079C04300F020000543A4
:1030C00005D10098022102F075FA00B1064616B14A
:1030D0000120BDE8FC9F0020FBE700004C440258A3
:1030E0002DE9F05F04460D46002C17D0DFF84C8226
:1030F000D8F8000000F00F00A84211D2D8F8000064
:1031000020F00F002843C8F80000D8F8000000F0B5
:103110000F00A84204D00120BDE8F09F0120FBE78A
:103120002078874E40070AD52069316801F0700188
:10313000884204D9316821F0700101433160207860
:10314000804F00070AD56069396801F07001884234
:1031500004D9396821F07001014339602078C00634
:103160000AD5A069396801F4E061884204D9396858
:1031700021F4E061014339602078DFF8CC918006CA
:103180000DD5E069D9F8001001F07001884206D928
:10319000D9F8001021F070010143C9F8001020781F
:1031A00080070AD5E068316801F00F01884204D930
:1031B000316821F00F01014331602078C00743D00E
:1031C0003068A16820F47060084330605C49606832
:1031D0001839022808D003280BD001280ED009681E
:1031E000490710D4012097E7096889030BD401200F
:1031F00092E70968890106D401208DE70968C905AD
:1032000001D4012088E7DFF838A1AAF1080ADAF82A
:10321000001021F007010143CAF80010FEF782FFF9
:10322000834609E0FEF77EFFA0EB0B0141F28830F8
:10323000814201D903206FE7DAF80000616800F0ED
:103240003800B0EBC10FEDD1207880070AD5E068D7
:10325000316801F00F01884204D2316821F00F017A
:1032600001433160D8F8000000F00F00A8420ED9E9
:10327000D8F8000020F00F002843C8F80000D8F864
:10328000000000F00F00A84201D0012044E72078A0
:1032900040070AD52069316801F07001884204D2E4
:1032A000316821F0700101433160207800070AD5B0
:1032B0006069396801F07001884204D2396821F0F0
:1032C0007001014339602078C0060AD5A0693968C9
:1032D00001F4E061884204D2396821F4E0610143DD
:1032E0003960207880060DD5E069D9F8001001F02A
:1032F0007001884206D2D9F8001021F07001014314
:10330000C9F8001000F0A0F83168C1F303220F499A
:103310008A5C02F01F02D040326802F00F02895C22
:103320000B4A01F01F0120FA01F111600949086000
:1033300009480068BDE8F05FFEF730BF002000528A
:10334000184402581C4402582044025824830008A0
:1033500068320024643200245C3200243F22026080
:10336000144A126802F007024260124A08321368D7
:1033700003F470638360136803F00F03C360126883
:1033800002F0700202610B4A0C32136803F0700302
:103390004361126802F4E0628261064A10321268E8
:1033A00002F07002C2610448006800F00F0008607B
:1033B00070470000104402580020005200B500F091
:1033C00043F80B490A68C2F303230A4AD35C03F0AB
:1033D0001F03D840096801F00F01515C064A01F053
:1033E0001F0120FA01F11160044A1060084600BD77
:1033F00018440258248300086832002464320024F0
:1034000000B5FFF7DBFF05490968054AC1F3021162
:10341000515C01F01F01C84000BD00001C4402586F
:103420002483000800B5FFF7C9FF05490968054A6C
:10343000C1F30221515C01F01F01C84000BD000032
:103440001C4402582483000830B564480068654C69
:1034500010F03801624808D0021108290DD0102957
:103460000DD018290DD0104630BD21688906FBD536
:103470002168C1F3C101C84030BD104630BD5A4873
:1034800030BD564918310A6802F003020968C1F3D9
:103490000511524B1C331B6803F001034F4D2435BB
:1034A0002D68C5F3CC0515FB03F300EE103AB8EE1A
:1034B000400A002977D0DFED4D0A484BB7EE001ADD
:1034C00020333AB39FED4A2A012A58D0022A6CD001
:1034D00001EE901A1868F8EE611AC2EE212AC0F3C4
:1034E000080001EE900AF8EE611A40EE201A31EE63
:1034F000810A22EE800A1868C0F34620401C00EEC4
:10350000900AF8EE600A80EE201ABCEEC10A10EEB6
:10351000100A30BD226892061BD52268C2F3C10290
:10352000D04001EE900A1868F8EE612A01EE901A78
:10353000F8EE611A82EEA12AC0F3080001EE900AAB
:10354000F8EE611A40EE201A31EE810A22EE000AEE
:10355000D1E701EE901ADFED272A1868F8EE611A1C
:1035600082EEA12AC0F3080001EE900AF8EE611A7B
:1035700040EE201A31EE810A22EE000ABBE701EE8E
:10358000901A1868F8EE611AC2EE212AC0F30800FA
:1035900001EE900AF8EE611A40EE201A31EE810A2F
:1035A00022EE800AA7E716E0FFE701EE901ADFEDB2
:1035B000122A1868F8EE611A82EEA12AC0F30800F8
:1035C00001EE900AF8EE611A40EE201A31EE810AFF
:1035D00022EE000A8FE7002030BD000010440258A0
:1035E0000090D0030044025840787D01000000396B
:1035F0000024744A0024744C20BCBE4B2DE9F05FBB
:103600000446002C10D02078DFF8F883FE4EFF4DE2
:10361000C0075DD0D8F8000000F0380031681028ED
:103620001FD0182803D006E00120BDE8F09F01F06C
:103630000300022815D06068B0F5803F18D0E0B1D3
:10364000B0F5A02F22D0286820F4803028602868A8
:1036500020F480202860606860B3FEF763FD0746B1
:1036600024E02868800333D5606810BB0120DCE7C4
:10367000286840F480302860EDE7286820F4803026
:103680002860286820F480202860E4E7286840F457
:1036900080202860286840F480302860DBE7FEF74F
:1036A00041FDC01B642801D90320BEE728688003C0
:1036B000F5D50DE0FEF736FD074606E0FEF732FDD4
:1036C000C01B642801D90320AFE728688003F5D424
:1036D000207841F2030ACE4F80073DD5D8F800008C
:1036E00000F03800316870B1182801D188070AD07D
:1036F000E06890B3296821F0190101432960FEF7C1
:1037000011FD814641E02868400701D5E06848B1D5
:103710002868E16820F0190008432860FEF702FDE0
:10372000814609E0012080E7FEF7FCFCA0EB0900E0
:10373000022801D9032078E728684007F4D5FEF76E
:10374000EBFC504511D82069402807D0396821F496
:103750007C3141EA003038604AE036E0386820F4D5
:103760007C3040F40030386042E03868217C20F042
:10377000FE4040EA016038603AE0FEF7D3FCA0EB7F
:103780000900022801D903204FE728684007F4D533
:10379000FEF7C2FC504510D82069402806D0396891
:1037A00021F47C3141EA0030386021E0386820F4AF
:1037B0007C3040F4003038601AE03868217C20F01A
:1037C000FE4040EA0160386012E0286820F0010005
:1037D0002860FEF7A7FC814607E0FEF7A3FCA0EBFC
:1037E0000900022801D903201FE728684007F4D404
:1037F0002078C0062FD5D8F8000000F038003168D6
:10380000DFF800B20828ABF1040B0FD0182803D161
:1038100001F00300012809D0E06978B3286840F07E
:1038200080002860FEF77EFC814630E02868C005F5
:1038300004D5E069802801D00120F6E6FEF76CFC93
:10384000504510D8206A202806D0396821F0F84168
:1038500041EA806038604FE0386820F0F84040F07E
:103860008040386048E0DBF8000094F8201020F039
:103870007C5040EA0160CBF800003DE02AE0FEF712
:1038800051FCA0EB0900022801D90320CDE62868ED
:10389000C005F4D5FEF740FC504510D8206A20281A
:1038A00006D0396821F0F84141EA8060386023E0B1
:1038B000386820F0F84040F0804038601CE0DBF8C9
:1038C000000094F8201020F07C5040EA0160CBF812
:1038D000000011E0286820F080002860FEF722FC3C
:1038E000074606E0FEF71EFCC01B022801D9032094
:1038F0009BE62868C005F5D42078000730D5DFF8AE
:103900000891606909F14C09A8B1D9F8000040F0AC
:103910000100C9F80000FEF705FC074606E0FEF7C7
:1039200001FCC01B022801D903207EE6D9F8000063
:103930008007F4D514E0D9F8000020F00100C9F8A0
:103940000000FEF7EFFB074606E0FEF7EBFBC01BAF
:10395000022801D9032068E6D9F800008007F4D4D2
:103960002078800626D5A06990B1286840F4805060
:103970002860FEF7D7FB074606E0FEF7D3FBC01B27
:10398000022801D9032050E628688004F5D511E00B
:10399000286820F480502860FEF7C4FB074606E044
:1039A000FEF7C0FBC01B022801D903203DE62868B2
:1039B0008004F5D42078400768D5164F386840F465
:1039C00080703860FEF7AEFB814607E0FEF7AAFB89
:1039D000A0EB0900642801D9032026E63868C00559
:1039E000F4D5094FA068483701281DD008B3052831
:1039F00028D0386820F001003860386820F00400D2
:103A0000386009E010440258284402580044025823
:103A10000444025800480258A06841F2883A30B382
:103A2000FEF780FB81461EE0386840F001003860F8
:103A3000E7E7386820F001003860386820F00400BB
:103A40003860DEE7386840F004003860386840F0DD
:103A500001003860D5E7FEF765FBA0EB0900504593
:103A600001D90320E1E538688007F4D50EE0FEF7C0
:103A700059FB814607E0FEF755FBA0EB09005045D6
:103A800001D90320D1E538688007F4D4616AE1B335
:103A9000D8F800004FF6F87BDFF8E0A1C0F3C200D1
:103AA00003280AF10409AAF104087DD0022907D0ED
:103AB000286820F080702860FEF734FB04468BE015
:103AC000286820F080702860FEF72CFB074606E08F
:103AD000FEF728FBC01B022801D90320A5E52868B2
:103AE0008001F5D4306840F2F3318843E16A40EA5E
:103AF0000110A16A08433060208E4FF6FF72616B9F
:103B0000401E491EC0F3080000E0B5E002EA412172
:103B10000843218F4FF4FE02491E02EA0141084387
:103B200094F83C10491E120202EA01610843CAF8E7
:103B30000000D8F8000020F00100C8F80000D9F813
:103B40000000A16C20EA0B0040EAC100C9F80000A7
:103B5000D8F80000216C20F00C000843C8F80000E1
:103B6000D8F80000616C20F002000843C8F800009B
:103B7000D8F8000040F48030C8F80000D8F8000001
:103B800040F40030C8F80000D8F8000040F480206D
:103B9000C8F80000D8F8000040F00100C8F80000A4
:103BA000286840F0807000E01AE02860FEF7BAFA5A
:103BB000044606E0FEF7B6FA001B022801D90320EE
:103BC00033E528688001F5D556E0FEF7ABFA001B17
:103BD000022801D9032028E528688001F5D44BE0AC
:103BE0003268DAF80000012921D0A36A02F003014B
:103BF00099421CD1E16AC2F30512914217D1216B9F
:103C0000C0F30802491E8A4211D1616BC0F34622FB
:103C1000491E91420BD1A16BC0F30642491E91424D
:103C200005D1E16BC0F30660491E814201D001203D
:103C3000FBE4D9F80000C0F3CC00A16C81421BD09A
:103C4000D8F8000020F00100C8F80000FEF76AFA7A
:103C50000546FEF767FAA842FBD0D9F80000A16C30
:103C600020EA0B0040EAC100C9F80000D8F80000C3
:103C700040F00100C8F800000020D6E430440258AB
:103C800010B504460120002C47D094F8210028B933
:103C9000002084F82000204600F042F8022084F83A
:103CA00021002068C168C943C90630D5CA214162D4
:103CB000216853204862204601F019FDB0B9206800
:103CC0008168164A11408160206881686268A36932
:103CD000114322691A43114381602189E06840EA57
:103CE000014021680861204601F024FD58B921688F
:103CF000CA6C22F00302CA64E26961690A4321685E
:103D0000CB6C1A43CA642268FF21516200E0002094
:103D1000002802D1012184F8211010BDBFFF8FFFC0
:103D200010B5B0B00446C0216846FCF700FD0B4852
:103D30002168814210D101020020CDE900108813D2
:103D40002D906846FEF7CAFC08B1FCF71BFE04483C
:103D5000016841F40041016030B010BD00400058DE
:103D60007044025870B504460B4694F820000128B0
:103D700007D0012684F82060022084F8210012B1C7
:103D800008E0022070BD5878C10603D500F0EF00AE
:103D90000A305870A2B1D978987840EA014558782D
:103DA0001978000240EA413005432168CA20486280
:103DB000532021684862204601F099FC88B117E041
:103DC000D87801F089FC0204587801F085FC42EAB9
:103DD0000022987801F080FC0243187842EA4035CE
:103DE000E3E70848054020684560204601F0A2FC52
:103DF0002268FF21516208B984F82160002184F80B
:103E0000201070BD3FFFFF002DE9F04104460D4634
:103E1000904694F82000012811D0012784F82070E2
:103E2000022084F821002168CA20486253202168BA
:103E30004862204601F05BFC002618B127E0022012
:103E4000BDE8F081B8F1000F26D0206880684006F8
:103E500000D4EE702978A878EA7840EA01406978C1
:103E6000090241EA82510843194908402168086063
:103E70002068816821F480218160D5E90310014325
:103E80002068826811438160204601F053FC22685B
:103E9000FF215162B0B117E020688068400600D46D
:103EA000EE70287801F018FC0204687801F014FC28
:103EB00042EA0022A87801F00FFC0243E87842EAC7
:103EC0008050D1E784F8217084F82060B8E70000C2
:103ED0007F7F7F0070B505460A482968C860FEF7F5
:103EE00021F904464FF47A7606E0FEF71BF9001B31
:103EF000B04201D9032070BD2868C0688006F4D59F
:103F0000002070BD5FFF0300704700002DE9F047FF
:103F1000044626683169726901EA0205D6F80890FC
:103F2000002094F8817006F1300812050AD50907BF
:103F300008D5B06940F40060B061204600F00FFA87
:103F4000BDE8F08705F0400105F02002114308D1DB
:103F5000690706D5616F20468847216F204688474C
:103F6000012005F04101012905D1690703D4216F22
:103F700020468847012005F02201022905D1690762
:103F800003D4616F2046884701200028D8D1280734
:103F90004FF001065DD52068816941F0080181611B
:103FA0002068816941F0100181612068816941F4D4
:103FB000006181612068016921F0080101612068C8
:103FC000806810F4404F22D025E0E0680F2807D920
:103FD0002068006B616E0860606E001D606611E015
:103FE000072807D9B8F80000616E0880606E801C51
:103FF000606607E0206890F83000616E0870606EBF
:10400000401C6066B4F86A00401EA4F86A00B4F868
:104010006A000028D9D1204601F0BCFB84F88160F9
:10402000D4F8840018B12046FFF76EFF88E7052F0B
:1040300007D0042F09D0032F82D1204600F034FA94
:104040007EE7204600F032FA7AE7204600F086F953
:1040500076E715F4587FE9D068060AD5D4F88400CD
:1040600040F00400C4F884002068816941F04001F8
:104070008161A8050AD5D4F8840040F00100C4F895
:1040800084002068816941F400718161E8050AD5E6
:10409000D4F8840040F00800C4F8840020688169E6
:1040A00041F480718161A8060AD5D4F8840040F0FB
:1040B0008000C4F884002068816941F0200181619A
:1040C000D4F884000028B1D02068016821F00101F3
:1040D00001602068016940F26B3291430161C9F3CC
:1040E0008130032805D084F881602046FFF70CFF5B
:1040F00026E72068816821F4404181600E4DE06F21
:1041000050B10565E06FFCF715FF28B1D4F88400C5
:1041100040F04000C4F88400A06F002886D00565F8
:10412000A06FFCF707FF00288AD054F8840F40F0F6
:104130004000206004E700004F5800082DE9F041DE
:104140000446002C12D00025A562DFF858812068B3
:10415000554E564F40450BD0B04209D0B84207D01B
:10416000E0680F2804D90120BDE8F0810120FBE7B9
:10417000204601F078FB01462068404505D0B0425A
:1041800003D0B84201D0082907D8404503D0B04237
:1041900001D0B84203D1102901D90120E4E794F8F5
:1041A000810020B984F88050204600F081F8022078
:1041B00084F881002068016821F001010160206815
:1041C000816801F4F812A169B1F1806F0ED16168C4
:1041D000B1F5800F01D1A36B23B139B9A16BB1F156
:1041E000805F03D1016841F4805101606068400242
:1041F0000AD5E068072807D320680168236D21F4F9
:1042000080711943016004E02068016821F4807125
:104210000160A16AE0690843E16B11430843E1686A
:10422000084321688860616A606BA2690843A16BDA
:10423000114308432169084361690843216A08431F
:1042400061680843E16C0843A1680843A16C084316
:10425000A16D08432168C860606868B920688168FA
:1042600021F4C05141F4006181602068816821F42B
:10427000C06141F4806181602068016D21F001011D
:1042800001656068400206D52068C168626D21F052
:1042900000411143C160C4F88450012084F88100BA
:1042A000002061E70030014000380040003C004041
:1042B00070B5B8B00446142132A8FCF738FAC02112
:1042C00002A8FCF734FA2249206888423ED18114C2
:1042D0000020CDE9021000241A9402A8FEF7FEF98E
:1042E00008B1FCF74FFB1B48016841F40041016035
:1042F000006800F40040019016480838016841F059
:1043000002010160006800F0020001901820329064
:1043100002253395349435940620369032A90E4EFA
:104320003046FDF7DFFD20213291339534943594EA
:104330000721369132A93046FDF7D4FD0022052130
:104340003320FDF793FF3320FDF782FF38B070BDB7
:10435000003C0040E844025800040258704770478F
:10436000F0B50025076807F1200490F88060012E61
:104370000DD0012680F8806090F881C00026BCF145
:10438000010F06D0022180F880600846F0BD0220AF
:10439000F0BDC1B1BAB1B3B12C304FF0050C80F80B
:1043A00055C0866501638386C38682638387C3871E
:1043B000C18E50F8202C2C380F2A09D9344A426774
:1043C000344A02670FE0012180F880600846F0BDA2
:1043D000072A04D9304A0267304A426703E0304A6C
:1043E0000267304A4267FA6822F4C022FA60026823
:1043F00057686FF30F071F4357600268136843F055
:10440000010313602BE0C1680F290CD950F85C1F21
:10441000096811620168091D0160C188491EC180D7
:10442000C1885C381BE007290CD950F85C1F09884B
:1044300021800168891C0160C188491EC180C18832
:104440005C380CE050F85C1F097882F82010016895
:10445000491C0160C188491EC180C1885C3802685E
:1044600053699B0701D50029CDD10168096940F244
:104470006C73194311614168B1F5800F04D1016873
:104480000A6842F400720A6080F880602846F0BD35
:104490002D590008A75800087B580008015900084A
:1044A000D358000859590008704700002DE9F04121
:1044B0002DED028B2D4988423BD12D4800780328F1
:1044C00002D0042805D007E0294D433505F684467F
:1044D00002E0284D05F68446254827490422001DA0
:1044E000FCF758F8224CB6EE008B641F04F10D0760
:1044F00018B321490422381F091DFCF74BF8002886
:1045000017D1606906EB800090ED000A012002F0EF
:1045100007F894ED100B30EE080B84ED100B010E34
:104520003970010C7970010AB970F8706069401C2B
:104530006061BDEC028BBDE8F081A06905EB8000F5
:1045400090ED000A002001F0EBFF94ED0E0B30EE31
:10455000080B84ED0E0B010E3970010C7970010A05
:10456000B970F870A069401CA061E2E78C340024A7
:1045700005000024501900242C8200087047704761
:1045800070470000F0B590F83C20012A3AD001268F
:1045900080F83C60022280F83D2003685A689C68DD
:1045A000194FDFF868C0BB4201D0634503D122F444
:1045B00070054A682A4322F070020D6815435D6059
:1045C0000268BA4213D0B2F1804F10D0104B9A4219
:1045D0000DD0104B9A420AD00F4B9A4207D0624539
:1045E00005D00E4B9A4202D00D4B9A4204D124F0D2
:1045F00080038968194391603C3046700021017046
:104600000020F0BD0220F0BD000001400004014088
:104610000004004000080040000C0040001800406A
:104620000040014010B50446002C03D094F83D0032
:1046300010B107E0012010BD002084F83C002046A6
:1046400000F018F8022084F83D002068211D01F0D8
:104650009DFA01203D34E0726070A070E07020711E
:104660006071A071E07120726072A07220700020F1
:1046700010BD000008B500680B49884212D10B48F4
:10468000016841F001010160006800F00100009044
:10469000002205211920FDF7E9FDBDE80840192099
:1046A000FDF7D6BD08BD000000000140F0440258EF
:1046B00090F83D10012901D001207047022180F8B7
:1046C0003D100168CA6842F00102CA6000681549DD
:1046D000884214D0B0F1804F11D0134988420ED0D7
:1046E000124988420BD01249884208D011498842A9
:1046F00005D01149884202D0104988420CD1816806
:104700000F4A114006290BD0B1F5803F08D001684F
:1047100041F00101016003E0016841F00101016025
:1047200000207047000001400004004000080040E5
:10473000000C00400004014000180040004001400F
:104740000700010070B50446002594F83C000128DC
:1047500015D0012684F83C60022084F83D002068D2
:104760008268394B1A4022F47F42826008687028C0
:1047700002462ED010DC10F00F0F03D022E04FF0D5
:10478000020070BD4FEA201007281BD2DFE800F0BE
:10479000575757574D394300B0F1101F4FD009DC20
:1047A000B0F5805F0FD0B0F5005F1ED0B0F5801F70
:1047B00008D144E0A0F58010203840D010283ED029
:1047C00020283CD001253C3466700020207028460B
:1047D00070BDCB682068D1E9012101F037FA20686B
:1047E000816841F077018160EDE7CB682068D1E90D
:1047F000012101F02BFA2068816841F48041816039
:10480000E1E7CA684968206801F034FA206850215D
:1048100001F026FAD7E7CA684968206801F03BFA38
:104820002068602101F01CFACDE7CA684968206859
:1048300001F020FA2068402101F012FAC3E7206855
:10484000114601F00DFABEE788FFCEFF704770B544
:104850000446206801694FF00005C943890716D452
:10486000C168C943890712D4E91E0161012020777C
:1048700020688069800703D02046FFF7E7FF05E046
:10488000204600F0AAF8204600F0A8F82577206816
:104890000169C943490718D4C168C943490714D4F9
:1048A0006FF004010161022020772068806910F414
:1048B000407F03D02046FFF7C9FF05E0204600F007
:1048C0008CF8204600F08AF8257720680169C943F2
:1048D000090717D4C168C943090713D46FF0080149
:1048E0000161042020772068C069800703D020463A
:1048F000FFF7ACFF05E0204600F06FF8204600F01F
:104900006DF8257720680169C943C90618D4C168C4
:10491000C943C90614D46FF0100101610820207743
:104920002068C06910F4407F03D02046FFF78EFF57
:1049300005E0204600F051F8204600F04FF82577BA
:1049400020680169C943C90708D1C168C943C907BB
:1049500004D1891E0161204600F042F820680169F7
:10496000C943090609D4C168C943090605D46FF0D3
:10497000800101612046FFF702FE20680169C943FA
:10498000C90509D4C168C943090605D46FF480710B
:1049900001612046FFF7F2FD20680169C94349061D
:1049A00009D4C168C943490605D46FF040010161CB
:1049B000204600F02BF820680169C94389060BD412
:1049C000C168C943890607D46FF020010161204600
:1049D000BDE87040FFF7D4BD70BD70477047000060
:1049E000074A0168914203D10649CA6A521CCA6249
:1049F00000680549884201D1FDF79ABB7047000065
:104A00000000014000000024001C0040704790F8A6
:104A10008410012918D0012180F884102421C0F8C5
:104A2000881001680A680B6823F001030B6022F00C
:104A3000005100224266036819602021C0F88810E6
:104A400080F884200020704702207047704770472C
:104A500070B5044694F8840001281DD0012084F824
:104A600084002420C4F8880020680568026822F0C9
:104A7000010202602068826822F060620A4382605C
:104A8000204601F021F9206805602020C4F8880044
:104A9000002084F8840070BD022070BD70B504460B
:104AA00094F8840001281DD0012084F8840024207B
:104AB000C4F8880020680568026822F001020260DC
:104AC0002068826822F060420A438260204601F03A
:104AD000FBF8206805602020C4F88800002084F8D6
:104AE000840070BD022070BD7047704770470000A1
:104AF0002DE9F04104462368D86919689A6840F6A0
:104B00000F0500EA0507002F0ED185060CD501F030
:104B1000200502F08056354306D0616F00297DD014
:104B20002046BDE8F041084700250226002F76D038
:104B3000CF4FDFF840C3174001EA0C0C57EA0C0CCA
:104B40006DD05FEAC07C0CD05FEAC15C09D54FF044
:104B5000010CC3F820C0D4F8903043F00103C4F82E
:104B60009030830709D5D30707D023681E62D4F895
:104B7000903043F00403C4F8903043070AD5D307BC
:104B800008D0266804233362D4F8903043F002033F
:104B9000C4F8903003070CD501F020033B4308D044
:104BA000266808233362D4F8903043F00803C4F831
:104BB000903003050BD54B0109D526684FF40063EF
:104BC0003362D4F8903043F02003C4F89030D4F826
:104BD0009030002B3CD0800609D501F0200002F077
:104BE0008051084303D0616F09B120468847D4F84B
:104BF000900021688968490602D410F0280F2DD052
:104C0000204601F049F920688068400622D52068D6
:104C1000083050E8001F21F0400101E018E023E0D7
:104C200040E80012002AF2D1D4F8800068B192491D
:104C30000165D4F88000FCF77DF9002808D0D4F88D
:104C40008000016DBDE8F04108472046FFF74EFFA8
:104C5000BDE8F0812046FFF749FFF9E72046FFF75E
:104C600045FFC4F89050F3E7E76E012F7ED1C706E9
:104C70007CD5CF067AD510201862206880684FF066
:104C80002003400673D5D4F880107C4A086890420F
:104C90003AD07A4A1832904236D0784A303290422E
:104CA00032D0764A483290422ED0744A60329042D6
:104CB0002AD0724A7832904226D0704A903290427E
:104CC00022D06E4AA83290421ED06D4A90421BD02C
:104CD0006B4A1832904217D0694A3032904213D052
:104CE000674A483290420FD0654A603290420BD0FA
:104CF000634A7832904207D0614A9032904203D0A2
:104D00005F4AA832904201D1406800E0406880B21A
:104D100000289DD0B4F85C20824299D9A4F85E00A6
:104D2000C869B0F5807F2FD0206850E8001F21F4BB
:104D3000807140E80012002AF6D12068083050E85F
:104D4000001F21F0010140E80012002AF5D120687F
:104D5000083050E8001F21F0400140E80012002A0E
:104D6000F5D1C4F88C30E566206801E049E016E032
:104D700050E8001F21F0100140E80012002AF3D192
:104D8000D4F88000FBF718FF2667B4F85C00B4F88D
:104D90005E10401A81B22046FFF758FE58E734F8FB
:104DA0005C0F6188401A81B260885C3C0028F5D0B5
:104DB0000029F3D0206850E8002F22F4907240E8D8
:104DC0000027002FF6D12A4FFF432068083050E813
:104DD000002F3A4040E8002CBCF1000FF5D1C4F898
:104DE0008C30E5666567206850E8002F22F01002DD
:104DF00040E80023002BF6D126672046FFF726FE69
:104E000026E7C50209D5550207D54FF48010186270
:104E10002046BDE8F041FFF768BE03060CD501F05F
:104E2000800302F40002134306D0A16F0029B5D01D
:104E30002046BDE8F0410847420606D54A0604D59B
:104E40002046BDE8F04101F051B8020206D54A0003
:104E500004D52046BDE8F041FFF746BEC0019DD510
:104E600000299BDA2046BDE8F041FFF7F0BD0000C5
:104E70000100001020010004835E000810000240C1
:104E80001004024010B50446002C03D0D4F888006A
:104E900010B107E0012010BD002084F884002046F6
:104EA00000F028F82420C4F888002068016821F068
:104EB00001010160204601F02BF8012818D0A06AFA
:104EC00010B1204600F024FF2068416821F4904191
:104ED00041602068816821F02A01816020680168B2
:104EE00041F0010101602046BDE8104000F074BFB0
:104EF000012010BD10B5B8B00446142132A8FBF74C
:104F000016FCC02102A8FBF712FC1D49206888424C
:104F100033D102210020CDE902100024209402A800
:104F2000FDF7DCFB08B1FBF72DFD1648016841F4E5
:104F300000210160006800F4002001901148083849
:104F4000016841F004010160006800F00400019074
:104F50004FF440603290022033903494359408200E
:104F6000369032A90848FCF7BDFF00220521342005
:104F7000FDF77CF93420FDF76BF938B010BD000067
:104F8000004C0040E8440258000802582DE9F84F50
:104F900004460E4615469846D4F88C00202802D0C8
:104FA0000220BDE8F88FC6B1BDB1002720342767C5
:104FB0002220E066E764FDF7B5F88146A587E5871E
:104FC000FF2154F8180C203C4FF4805398420BD129
:104FD000226922B1A4F860100DE00120E1E740F25F
:104FE000FF11A4F8601006E07F2278B1B0F1805F75
:104FF00014D0A4F86070B4F86070984201D12069B0
:10500000A8B1354600264FF0200A2AE0256915B1DF
:10501000A4F86020EFE7A4F86010ECE7216919B16B
:105020003F21A4F86010E6E7A4F86020E3E700253C
:10503000E9E700224B4620212046CDF8008001F010
:10504000AFF918B1C4F88CA00320AAE785B1206895
:10505000406A384005F8010BB4F85E00401EA4F821
:105060005E00B4F85E000028E3D1C4F88CA098E795
:105070002068406A384026F8020BEDE72DE9F84336
:1050800004460E4615461F46D4F88800202802D054
:105090000220BDE8F8838EB185B100201834A067E6
:1050A00021202067FDF73EF88146A587E58754F863
:1050B000100C183CB0F5805F02D003E00120E8E757
:1050C000206920B1354600264FF0200817E0002562
:1050D000FAE700224B4680212046009701F060F954
:1050E00018B1C4F888800320D3E7C5B1216815F84A
:1050F000010B8862B4F85600401EA4F85600B4F8BC
:1051000056000028E5D100224B464021204600975A
:1051100001F046F950B1C4F888800320B9E721684E
:1051200036F8020BC0F308008862E3E7C4F8888011
:105130000020AEE77047FEE7094C0027094D4FF00D
:10514000FF38094E0020414601F07CFFE06D40F041
:105150000100E0652F60306802F058FEF2E70000C1
:1051600000A000402C0000242000002410B51B48A3
:10517000194C046000218160C160012202744174F5
:1051800081740F23436182610D23C3610223036293
:1051900042628262C262026341638163C1633223FD
:1051A0000364042343648164C364016543658165CA
:1051B000C2651422026641668366FCF7E5FA08B10F
:1051C000FBF7E0FB05480121FCF779F8206A40F085
:1051D0000100206210BD000000A00040C833002480
:1051E0002DE9F04387B0142102A8FBF7A0FA384854
:1051F000016841F004010160016801F004010191BE
:10520000016841F001010160016801F001010191B3
:10521000016841F002010160016801F002010191A1
:10522000016841F008010160016801F00801019185
:10523000016841F010010160006800F01000019069
:10524000DFF89080002220214046FCF75DFFDFF868
:1052500088904CF20106002231464846FCF754FF84
:105260001E4F002202213846FCF74EFF20200290FC
:105270000125039500240494059402A94046FCF7F7
:1052800031FE029603950494059402A94846FCF762
:1052900029FE032002904FF4881003900226049602
:1052A0000F4802A9FCF71EFE02960395049405948C
:1052B00002A93846FCF716FE002205210720FCF75C
:1052C000D5FF0720FCF7C4FF07B0BDE8F08300005E
:1052D000E04402580000025800040258001002582E
:1052E000000C025810B586B0142101A8FBF71FFA74
:1052F000002400941C481B49016044607F218160A8
:10530000FF21C16004618461C4614461FEF7B8FC9F
:1053100008B1FBF737FB16208DF804008DF8054027
:105320008DF806400494059401220F4801A9FEF768
:105330006BFD08B1FBF726FB06208DF80000042169
:105340008DF801108DF8020024208DF80300012251
:1053500005486946FEF706FD002801D0FBF712FB61
:1053600006B010BD004000586834002410B5124843
:10537000104901600021416081600722C260016123
:1053800041614FF080628261016241628162C1626B
:1053900041638163C163016441648164C1640165E7
:1053A00041658165FEF7CAFE002801D0FBF7EAFAE5
:1053B00010BD0000003C00408C34002410B588B0C3
:1053C0000024049405940694079401940294039491
:1053D000144813490160EF21416084600921C160D4
:1053E000046144618461FFF71DF908B1FBF7CAFA53
:1053F0004FF4805004900B4804A9FFF7A3F908B1BB
:10540000FBF7C0FA01940294039401A90548FFF741
:10541000B9F8002801D0FBF7B5FA08B010BD0000BC
:10542000000001401435002410B5174815490160EB
:105430004FF4E131416000218160C16001610C22C3
:1054400042618161C161016241628162FFF71AFDBF
:1054500008B1FBF797FA0C480021FFF71FFB08B1D2
:10546000FBF790FA08480021FFF7F2FA08B1FBF7C2
:1054700089FA0548FFF7CBFA002801D0FBF782FA3A
:1054800010BD0000004C004060350024FEE7FEE740
:105490002DE9F047044688460027DFF81491D9F833
:1054A0000000C043800709D0414D283D286820F006
:1054B00080602860FCF736FE064609E00120BDE862
:1054C000F087FCF72FFE801B022801D90320F6E7A6
:1054D00028680001F5D4D9F80000216820F47C3058
:1054E00040EA0130C9F80000A0884FF6FF72A168B9
:1054F000401E491EC0F3080002EA41210843A18969
:105500004FF4FE02491E02EA01410843217C1202C7
:10551000491E02EA01610843254910310860244808
:10552000001D0168626921F0C0011143016001683A
:10553000A26921F0200111430160016821F01001EE
:1055400001601B4914310A684FF6F8739A43E36906
:1055500042EAC3020A60016841F010010160B8F13B
:10556000000F0ED0B8F1010F10D0016841F4001106
:105570000160286840F080602860FCF7D3FD044695
:1055800010E0016841F400210160F2E7016841F494
:1055900080110160EDE7FCF7C5FD001B022801D971
:1055A00003208CE728680001F5D5384687E700001E
:1055B000284402582DE9F047044688460027DFF8C2
:1055C0001491D9F80000C043800709D0414D283D0F
:1055D000286820F080502860FCF7A4FD064609E00A
:1055E0000120BDE8F087FCF79DFD801B022801D952
:1055F0000320F6E728688000F5D4D9F80000218858
:1056000020F07C7040EA0150C9F80000A0884FF6F5
:10561000FF72A168401E491EC0F3080002EA412142
:105620000843A1894FF4FE02491E02EA01410843E2
:10563000217C1202491E02EA016108432549183102
:1056400008602448001D0168626921F4406111432B
:1056500001600168A26921F40071114301600168D1
:1056600021F4807101601B491C310A684FF6F87300
:105670009A43E36942EAC3020A60016841F4807117
:105680000160B8F1000F0ED0B8F1010F10D0016821
:1056900041F080710160286840F080502860FCF77C
:1056A00041FD044610E0016841F480010160F2E729
:1056B000016841F400010160EDE7FCF733FD001BD8
:1056C000022801D903208CE728688000F5D53846E8
:1056D00087E7000028440258002102E0491C0A38EC
:1056E000C0B20A28FAD2090740EA116070472DE9D2
:1056F000F041044600252068C168490616D4691E99
:10570000C160FCF70FFD064603274FF47A7807E0E7
:10571000FCF708FD801B404502D9032584F8217061
:105720002068C068400601D4032DF1D12846BDE8A9
:10573000F08100002DE9F04106460024114DE86893
:1057400020F04000E860A8684FF00307800607D407
:105750003046FEF7BFFB90B186F8217003240EE0BF
:10576000A86820F02000A8603046FEF7B3FB10B117
:1057700086F821700324A86840F02000A860204625
:10578000BDE8F081004000580148FEF7BFBB0000B3
:105790008C34002410B502685169936943F0080302
:1057A00093610268936943F0100393610268136880
:1057B00023F0010313600268136940F26F34A343BE
:1057C00013610268936823F44043936090F881204A
:1057D000042A0CD08A060AD5D0F8842042F0800230
:1057E000C0F884200268936943F02003936190F825
:1057F0008120032A0CD04A060AD5D0F8842042F032
:105800000402C0F884200268936943F04003936166
:105810008A050AD5D0F8842042F00102C0F884201D
:105820000268936943F400739361C9050AD5D0F8FF
:10583000841041F00801C0F8841001688A6942F4BC
:1058400080728A61002120F8621F018110BD10B5AD
:10585000806B00216230018101800121C1776238B3
:10586000FEF752FB10BDC16B012202EB5111C06863
:10587000401CC01DC008484370470168098E426E35
:105880001180416E891C4166B0F86A10491EA0F86B
:105890006A10B0F86A10002904D10068016921F08B
:1058A0000101016170470168096B426E1160416E30
:1058B000091D4166B0F86A10491EA0F86A10B0F8D8
:1058C0006A10002904D10068016921F00101016119
:1058D0007047016891F83010426E1170416E491C9A
:1058E0004166B0F86A10491EA0F86A10B0F86A1054
:1058F000002904D10068016921F0010101617047AC
:105900000168C26D12880A84C16D891CC165B0F836
:105910006210491EA0F86210B0F86210002904D18C
:105920000068016921F0020101617047C16D0268E0
:1059300009681162C16D091DC165B0F86210491E88
:10594000A0F86210B0F86210002904D10068016963
:1059500021F0020101617047C16D0268097882F887
:105960002010C16D491CC165B0F86210491EA0F835
:105970006210B0F86210002904D10068016921F0BA
:1059800002010161704710B54FF0E020006902F09C
:10599000C3F9012803D0BDE8104001F069BE10BD75
:1059A00070B59CB04C2109A8FAF7C1FE202101A8CE
:1059B000FAF7BDFE0220FCF78BFC0024334A106886
:1059C00020F00100106010683148016841F4404146
:1059D0000160016801F44041009101688904FCD52F
:1059E0002C490B6843F002030B60096801F00201C7
:1059F0000091016841F4404101600168116841F083
:105A000001011160116801F0010100910168890430
:105A1000FCD5FCF789FCFCF77FFB1E488438016845
:105A200021F0180101600620099001200B900C90D4
:105A300040250D95022012901394042114913C21CD
:105A4000159116900826179618900C2019901A9404
:105A50001B9409A8FDF7D2FD08B1FAF793FF3F2088
:105A600001900320029003940496059506954FF447
:105A7000806007900895042101A8FDF731FB0028FC
:105A800001D0FAF77FFF1CB070BD00002C04005855
:105A900018480258F444025810B52C48016841F4E3
:105AA000700101602A4A106800F00F00072804D234
:105AB000106820F00F00C01D10602649086840F0F3
:105AC00001000860234B0020103318600B68224C43
:105AD00023400B60136803F00F03072B04D91368EE
